:1000000071C000008FC000008DC000008BC00000D8
:1000100089C0000087C0000085C0000083C00000C8
:1000200081C000007FC000007DC000007BC00000D8
:1000300079C0000077C0000075C0000073C00000E8
:1000400071C000006FC000006DC000006BC00000F8
:1000500069C0000067C0000065C0000063C0000008
:100060004EC20000C6C20000ECC200005BC000002F
:1000700059C0000057C00000D7C1000053C00000A5
:1000800051C000004FC000004DC000004BC0000038
:1000900027C300004EC3000045C0000043C000005D
:1000A00041C000003FC0000006C500003BC000008A
:1000B00039C0000037C0000035C0000013C5000083
:1000C00031C000002FC000002DC0000081C300001F
:1000D000A8C3000027C0000013C400003AC40000F9
:1000E00021C0000011241FBECFEFD1E2DEBFCDBF83
:1000F00000E00CBF12E0A0E0B2E0E8E3F1E100E0D4
:100100000BBF02C007900D92A234B107D9F723E0CC
:10011000A2E4B2E001C01D92AB3FB207E1F730D5D7
:100120000C949A086DCFFDC00895EF92FF920F9343
:100130001F93CF93DF9300D01F921F92CDB7DEB7EE
:100140007C017FD48C011A8219821C821B8225C0FB
:100150009AD38823D9F075D48C019CD38D838B815D
:100160009C819C012F5F3F4F3C832B832D81F701A6
:10017000E80FF91F20838D818F3F31F489819A81A7
:1001800001969A83898302C01A8219825AD49801EF
:100190002E513B4F2817390738F089819A810397F0
:1001A000BCF28B819C8102C08FEF9FEF0F900F906C
:1001B0000F900F900F90DF91CF911F910F91FF90B3
:1001C000EF900895CF92DF92EF92FF920F931F93DB
:1001D000CF93DF93CDB7DEB7C454D1090FB6F894EF
:1001E000DEBF0FBECDBF8FEF9FEF9C838B830F2EA3
:1001F000F6E1CF2EF2E0DF2EF02D0EE012E00F2E12
:10020000FFE3EF2EF2E0FF2EF02D3CC0CE0105966D
:100210008CDF9C838B838B819C81181619066CF56F
:100220001A82198229813A818B819C81281739078A
:10023000F4F4E981FA8185E090E08C0F9D1FE80FCE
:10024000F91F80811F928F931F930F93B3D48981DD
:100250009A8101969A83898329813A818B819C8135
:100260000F900F900F900F902817390714F3FF92FB
:10027000EF92A0D40F900F9005C0DF92CF929AD446
:100280000F900F908B819C81892B09F0BFCFCC5BA5
:10029000DF4F0FB6F894DEBF0FBECDBFDF91CF9119
:1002A0001F910F91FF90EF90DF90CF9008952398CA
:1002B0002B98229A2A98219A2998209A289812C134
:1002C000089568987098699A7198EDC10895529848
:1002D0005A98539A5B985FC20895A1E0B1E08C915F
:1002E0008E7F8C93E2E0F1E080818E7F80838C9121
:1002F00082608C9380818D7F8083E5C20895A4E025
:10030000B1E08C918E7F8C93E5E0F1E080818E7F6F
:1003100080838C9182608C9380818D7F80836EC37B
:1003200008958FE3809365008FEE8093640081B120
:1003300011B882B18FEF82B994B114B895B185B973
:1003400097B117B898B188B99AB11AB89BB18BB95F
:100350009DB11DB89EB18EB990B310BA91B381BB57
:1003600093B3907C93BB94B39F6394BBE1E0F1E0C3
:1003700090811082E2E0F1E090818083E4E0F1E09E
:1003800090811082E5E0F1E090818083E7E0F1E088
:1003900090811082E8E0F1E090818083AAE0B1E0F2
:1003A0009C911C92EBE0F1E0908180830A9A129874
:1003B0000B9A13980C9A14980D9A15980E9A1698F1
:1003C0000F9A179838984098399841983A984298D7
:1003D0003B9843983C9844983D9845983E98469859
:1003E0003F9847988C9181608C9380818E7F808329
:1003F0008C9182608C938081826080838C918460F8
:100400008C9380818460808340E060E881E690E0A6
:1004100061D013BE15BE58D04ADFCBD0D7D051DF44
:1004200056DF5BDF6CCF08951F920F920FB60F92CD
:1004300011240BB60F922F933F934F935F936F93BB
:100440007F938F939F93AF93BF93EF93FF9380918D
:10045000470281110EC0E2E4F2E01082FB9886812F
:100460009781892BF1F0E0914802F09149021995AA
:1004700018C0E2E4F2E0818192819C012F5F3F4F3E
:100480003283218392BD81BDA381B481CD010196C8
:10049000948383838C9180BD858181508583FA9A72
:1004A000F99AFF91EF91BF91AF919F918F917F91B9
:1004B0006F915F914F913F912F910F900BBE0F90D5
:1004C0000FBE0F901F90189510924902109248028B
:1004D00080E008952FB7F8941BBEFC016083408331
:1004E0002FBF0895E4E6F0E080818B7F808381E573
:1004F0008CBDEAE4F2E010821682158208951F9204
:100500000F920FB60F9211240BB60F922F933F93B9
:100510004F935F936F937F938F939F93AF93BF930B
:10052000CF93DF93EF93FF939EB580914E0282307D
:1005300011F1CAE4D2E0A981BA81FD019193FA8355
:10054000E983813019F011969C9101C090E0EAE4B2
:10055000F2E0838181508383882311F09EBD14C013
:10056000EAE4F2E083E080830580F681E02D3097B5
:1005700059F0199509C0EAE4F2E0A181B281CD01F8
:10058000019692838183DFCFFF91EF91DF91CF912D
:10059000BF91AF919F918F917F916F915F914F919B
:1005A0003F912F910F900BBE0F900FBE0F901F9099
:1005B0001895E5E6F0E080818F7E808381E080936E
:1005C000A10082E08093720080E00895E5E6F0E00B
:1005D00080818F7D808381E08093210180E89EE38C
:1005E000909329018093280182E08093730080E03A
:1005F00008951F920F920FB60F9211240BB60F920F
:100600008F939F93EF93FF938091C600E091E80250
:10061000EF5FE093E8029091E702F0E0E751FD4FD1
:1006200080838091E6028F5F8093E602FF91EF91D5
:100630009F918F910F900BBE0F900FBE0F901F9048
:1006400018951F920F920FB60F9211240BB60F92AE
:100650008F93EF93FF938091D302882389F0E091E9
:10066000D402EF5FEF70E093D402F0E0EA52FD4F66
:1006700080818093C6008091D30281508093D30201
:100680008091D302811105C0E1ECF0E080818F7D83
:100690008083FF91EF918F910F900BBE0F900FBE53
:1006A0000F901F901895E4E6F0E080818D7F8083A5
:1006B0001092C50087E68093C4001092C00088E9BC
:1006C0008093C1001092E7021092E8021092E602B5
:1006D0001092D4021092D5021092D30280E00895B5
:1006E0001F920F920FB60F9211240BB60F928F9399
:1006F0009F93EF93FF938091CE00E091C202EF5F52
:10070000EF70E093C2029091C102F0E0ED53FD4F13
:1007100080838091C0028F5F8093C002FF91EF9130
:100720009F918F910F900BBE0F900FBE0F901F9057
:1007300018951F920F920FB60F9211240BB60F92BD
:100740008F93EF93FF938091AD02882389F0E0911E
:10075000AE02EF5FEF70E093AE02F0E0E055FD4FC8
:1007600080818093CE008091AD0281508093AD0254
:100770008091AD02811105C0E9ECF0E080818F7DB0
:100780008083FF91EF918F910F900BBE0F900FBE62
:100790000F901F901895E5E6F0E080818E7F8083B2
:1007A0001092CD0087E68093CC001092C80088E9B3
:1007B0008093C9001092C1021092C2021092C0022E
:1007C0001092AE021092AF021092AD0280E0089536
:1007D0001F920F920FB60F9211240BB60F928F93A8
:1007E0009F93EF93FF938091D600E0918C02EF5F8F
:1007F000EF71E0938C0290918B02F0E0E357FD4F94
:10080000808380918A028F5F80938A02FF91EF91AB
:100810009F918F910F900BBE0F900FBE0F901F9066
:1008200018951F920F920FB60F9211240BB60F92CC
:100830008F93EF93FF9380917702882389F0E09163
:100840007802EF5FEF70E0937802F0E0E658FD4F3A
:1008500080818093D60080917702815080937702C7
:1008600080917702811105C0E1EDF0E080818F7DFC
:100870008083FF91EF918F910F900BBE0F900FBE71
:100880000F901F90189590918A0281E0911101C0FC
:1008900080E0089580918A028823E1F3E0918B0241
:1008A000EF5FEF71E0938B020FB6F8940F92809197
:1008B0008A02815080938A020F900FBEF0E0E357C6
:1008C000FD4F80810895E5E6F0E080818D7F808393
:1008D0001092D50087E68093D4001092D00088E96A
:1008E0008093D10010928B0210928C0210928A0297
:1008F00010927802109279021092770280E00895A7
:100900001F920F920FB60F9211240BB60F928F9376
:100910009F93EF93FF9380913601E0916602EF5F22
:10092000EF70E093660290916502F0E0E959FD4FA7
:100930008083809164028F5F80936402FF91EF91C6
:100940009F918F910F900BBE0F900FBE0F901F9035
:1009500018951F920F920FB60F9211240BB60F929B
:100960008F93EF93FF9380915102882389F0E09158
:100970005202EF5FEF70E0935202F0E0EC5AFD4F4D
:100980008081809336018091510281508093510281
:1009900080915102811105C0E1E3F1E080818F7DFA
:1009A0008083FF91EF918F910F900BBE0F900FBE40
:1009B0000F901F901895209153022F5F2F709091E8
:1009C00051029031E1F3E22FF0E0EC5AFD4F8083C9
:1009D000209353020FB6F8940F92809151028F5FCB
:1009E000809351020F900FBEE1E3F1E080818062BD
:1009F00080830895E0DF80E090E00895E5E6F0E090
:100A000080818B7F80831092350187E6809334014B
:100A10001092300188E980933101109265021092A2
:100A200066021092640210925202109253021092C7
:100A3000510280E092E09093F8038093F70380E006
:100A400008950FB6F8940F928091F3039091F403F8
:100A50000F900FBE0895CF93DF9300D01F92CDB7B4
:100A6000DEB70FB6F8940F922091F3033091F403A0
:100A70000F900FBE3C832B832B813C81820F931FF1
:100A80009A8389830FB6F8940F928091F303909123
:100A9000F4030F900FBE9C838B832B813C81898153
:100AA0009A812817390770F30F900F900F900F90CD
:100AB000DF91CF9108951F920F920FB60F921124DC
:100AC0008F939F938091F3039091F40301969093F9
:100AD000F4038093F3039F918F910F900FBE0F90BB
:100AE0001F9018951F920F920FB60F9211242F93FB
:100AF0003F934F935F936F937F938F939F93AF93A6
:100B00008091E9039091EA038058914C9093EA0315
:100B10008093E903909329018091E9038093280150
:100B20002091EB033091EC034091ED035091EE03E3
:100B30006091EF037091F0038091F1039091F203C3
:100B4000A1E02CD02093EB033093EC034093ED0312
:100B50005093EE036093EF037093F0038093F103DF
:100B60009093F203AF919F918F917F916F915F91DD
:100B70004F913F912F910F900FBE0F901F9018959E
:100B8000D2DA789484E392E09F938F9313D082EE2D
:100B900094E061DF0F900F9015DBFECF0024A7FDDE
:100BA00000942A0F301D401D501D601D701D801DBA
:100BB000901D0895CF93DF93CDB7DEB7AE014A5FA6
:100BC0005F4FFA0161917191AF018091F7039091AC
:100BD000F80303D0DF91CF9108952F923F924F9267
:100BE0005F926F927F928F929F92AF92BF92CF92BD
:100BF000DF92EF92FF920F931F93CF93DF93CDB7C6
:100C0000DEB72B970FB6F894DEBF0FBECDBF6C01D9
:100C10007B018A01FC0117821682838181FFBFC19B
:100C2000CE0101963C01F6019381F70193FD859178
:100C300093FF81917F01882309F4ADC1853239F496
:100C400093FD859193FF81917F01853221F4B60157
:100C500090E0D6D1E8CF912C212C312CFFE1F31577
:100C6000D8F08B3279F038F4803279F08332A1F405
:100C7000232D20611DC08D3261F0803369F4232D56
:100C8000216016C0832D8260382EE32DE4603E2E55
:100C90002AC0F32DF8601DC037FC2DC020ED280FB1
:100CA0002A3040F08E32B9F436FC75C1232D206411
:100CB000322E19C036FE06C08AE0989E200D1124FF
:100CC000922E11C0EAE02E9E200D1124222EF32D2B
:100CD000F0623F2E08C08C3621F4832D8068382EB8
:100CE00002C0883641F4F70193FD859193FF81910D
:100CF0007F018111B3CF982F9F7D9554933028F4B5
:100D00000C5F1F4F9FE399830DC0833631F083370B
:100D100071F0833509F055C020C0F80180818983C6
:100D20000E5F1F4F88248394912C530112C0280119
:100D3000F2E04F0E511CF801A080B18036FE03C0D6
:100D4000692D70E002C06FEF7FEFC5014ED14C01FD
:100D50008201F32DFF773F2E15C0280122E0420EBD
:100D6000511CF801A080B18036FE03C0692D70E0EF
:100D700002C06FEF7FEFC5012DD14C01F32DF0685C
:100D80003F2E820133FC19C0822D90E0881699060F
:100D9000A0F4B60180E290E033D12A94F5CFF501BA
:100DA00037FC859137FE81915F01B60190E028D133
:100DB00021102A9421E0821A91088114910479F774
:100DC000E1C0843611F0893639F5F80137FE07C0E5
:100DD00060817181828193810C5F1F4F08C06081A7
:100DE0007181072E000C880B990B0E5F1F4FF32D9E
:100DF000FF763F2E97FF09C090958095709561957D
:100E00007F4F8F4F9F4FF0683F2E2AE030E0A301C5
:100E100033D1882E861844C0853731F4232D2F7E98
:100E2000B22E2AE030E025C0932D997FB92E8F365F
:100E3000C1F018F4883579F0AEC0803719F08837E2
:100E400021F0A9C0E92FE061BE2EB4FE0DC0FB2D3C
:100E5000F460BF2E09C034FE0AC0292F2660B22ECE
:100E600006C028E030E005C020E130E002C020E10B
:100E700032E0F801B7FE07C0608171818281938101
:100E80000C5F1F4F06C06081718180E090E00E5FB3
:100E90001F4FA301F1D0882E8618FB2DFF773F2E20
:100EA00036FE0DC0232D2E7FA22E891458F434FE59
:100EB0000BC032FC09C0832D8E7EA82E05C0B82C35
:100EC000A32C03C0B82C01C0B92CA4FE0FC0FE0196
:100ED000E80DF11D8081803321F49A2D997EA92E91
:100EE00009C0A2FE06C0B394B39404C08A2D8678CC
:100EF00009F0B394A3FC10C0A0FE06C0B21480F4A5
:100F0000280C922C9B180DC0B21458F4B60180E244
:100F100090E076D0B394F8CFB21418F42B1802C036
:100F2000982C212CA4FE0FC0B60180E390E068D07D
:100F3000A2FE16C0A1FC03C088E790E002C088E5CD
:100F400090E0B6010CC08A2D867851F0A1FE02C057
:100F50008BE201C080E2A7FC8DE2B60190E050D0A8
:100F6000891430F4B60180E390E04AD09A94F8CF27
:100F70008A94F301E80DF11D8081B60190E040D024
:100F80008110F6CF222009F44ECEB60180E290E027
:100F900037D02A94F7CFF6018681978102C08FEF70
:100FA0009FEF2B960FB6F894DEBF0FBECDBFDF913B
:100FB000CF911F910F91FF90EF90DF90CF90BF9056
:100FC000AF909F908F907F906F905F904F903F90E9
:100FD0002F900895FC010590615070400110D8F7E2
:100FE000809590958E0F9F1F0895FC016150704071
:100FF00001900110D8F7809590958E0F9F1F08954E
:101000000F931F93CF93DF93FB01238121FD03C037
:101010008FEF9FEF2CC022FF16C04681578124819D
:1010200035814217530744F4A081B1819D012F5FA0
:101030003F4F318320838C93268137812F5F3F4F31
:101040003783268314C08B01EC01FB010084F185FA
:10105000E02D1995892BE1F6D80116968D919C917A
:101060001797019617969C938E931697CE01DF9152
:10107000CF911F910F910895FA01AA27283051F1BD
:10108000203181F1E8946F936E7F6E5F7F4F8F4FB9
:101090009F4FAF4FB1E03ED0B4E03CD0670F781F18
:1010A000891F9A1FA11D680F791F8A1F911DA11DFD
:1010B0006A0F711D811D911DA11D20D009F4689436
:1010C0003F912AE0269F11243019305D3193DEF6DE
:1010D000CF010895462F4770405D4193B3E00FD094
:1010E000C9F7F6CF462F4F70405D4A3318F0495D7F
:1010F00031FD4052419302D0A9F7EACFB4E0A69562
:101100009795879577956795BA95C9F70097610583
:10111000710508959B01AC010A2E069457954795D9
:1011200037952795BA95C9F7620F731F841F951FCE
:08113000A01D0895F894FFCF03
:101138000000000200000000FA04000000003078FF
:101148002530327820005374696C6C20776169749B
:10115800696E6720666F72204C4344207072657315
:10116800730A0D0048656C6C6F20576F726C640AC7
:021178000D0068
:00000001FF
