:1000000071C0000090C000008EC000008CC00000D5
:100010008AC0000088C0000086C0000084C00000C4
:1000200082C0000080C000007EC000007CC00000D4
:100030007AC0000078C0000076C0000074C00000E4
:1000400072C0000070C000006EC000006CC00000F4
:100050006AC0000068C0000066C0000064C0000004
:1000600066C40000DEC4000004C500005CC00000DF
:100070005AC0000058C00000EFC3000054C0000088
:1000800052C0000050C000004EC000004CC0000034
:100090003FC5000066C5000046C0000044C0000027
:1000A00042C0000040C0000078C700003CC0000013
:1000B0003AC0000038C0000036C00000A9C70000E8
:1000C00032C0000030C000002EC00000D8C50000C3
:1000D000FFC5000028C0000089C60000B0C60000AF
:1000E00022C0000011241FBECFEFD1E2DEBFCDBF82
:1000F00000E00CBF14E0A0E0B2E0E0EBF8E100E0CB
:100100000BBF02C007900D92AC37B107D9F729E0B9
:10011000ACE7B4E001C01D92A630B207E1F70E943F
:10012000B8080C94560C6CCF14C308958F929F920C
:10013000AF92BF92CF92DF92EF92FF920F931F93F5
:10014000CF93DF9300D0CDB7DEB7062F6623B9F18A
:10015000E82EF92E10E00F2EF7E98F2EF3E09F2EF8
:10016000F02D0F2EF9EEAF2EF2E0BF2EF02DCE01C6
:1001700001966C01812F8F7039F49F928F920E94AB
:1001800033090F900F9004C080E290E00E9446096E
:10019000F70181917F011F928F93BF92AF92DF92FF
:1001A000CF920E947B09DF92CF920E9433091F5F9A
:1001B0000FB6F894DEBF0FBECDBF0113DBCF87E9CA
:1001C00093E09F938F930E9433090F900F900F90AD
:1001D0000F900F90DF91CF911F910F91FF90EF90B3
:1001E000DF90CF90BF90AF909F908F900895DF9257
:1001F000EF92FF920F931F93CF93DF937C01D62E44
:10020000662369F0EC010FEF060F10E00F5F1F4F40
:10021000080F191F8991F7D4C017D107D9F76D2D91
:10022000C70184DFDF91CF911F910F91FF90EF9075
:10023000DF900895CF92DF92EF92FF920F931F937A
:10024000CF93DF93CDB7DEB7E3970FB6F894DEBF59
:100250000FBECDBF88E2EDE2F2E0DE011196019023
:100260000D928A95E1F78BE0E5E5F2E0DE019996E3
:1002700001900D928A95E1F7CE0101967C016E0105
:1002800099E2C90ED11C8E010E5C1F4F14C09191D2
:100290008AA9890F8AAB9BA9890F8BABE017F1075D
:1002A000B1F76BE0CE018996A2DFE2E0EE0EF11C21
:1002B000CE14DF0451F0F70180818FA7818188ABD4
:1002C0001AAA1BAAFE01BB96E2CFE3960FB6F894DA
:1002D000DEBF0FBECDBFDF91CF911F910F91FF9079
:1002E000EF90DF90CF900895CF93DF93CDB7DEB737
:1002F0002E970FB6F894DEBF0FBECDBF8EE0ECE7B1
:10030000F2E0DE01119601900D928A95E1F76EE020
:10031000CE0101966CDF2E960FB6F894DEBF0FBEAD
:10032000CDBFDF91CF910895CF93DF93CDB7DEB7E7
:10033000AC970FB6F894DEBF0FBECDBF8CE2EAE8F3
:10034000F2E0DE01119601900D928A95E1F76CE2E0
:10035000CE0101964CDFAC960FB6F894DEBF0FBE0F
:10036000CDBFDF91CF910895CF93DF93CDB7DEB7A7
:100370002B970FB6F894DEBF0FBECDBF8BE0E6EB38
:10038000F2E0DE01119601900D928A95E1F76BE0A3
:10039000CE0101962CDF2B960FB6F894DEBF0FBE70
:1003A000CDBFDF91CF910895E6EAF8E04EEF58E037
:1003B00090E080E02191820F980FE417F507D1F7C4
:1003C0002091FE08821307C081E02091FF082917C1
:1003D00019F080E001C080E081700895E09103028F
:1003E000E43070F42E2F30E0D901A656BC4F9C911A
:1003F000891317C0EF5FD901AC55B74F8C9314C068
:10040000EC3590F491E09E0FF0E0EC55F74F8083CF
:100410009C3549F410920302C7DF81110AC0E0E065
:1004200003C0E0E001C0E92FE093030280E090E028
:10043000089581E090E00895CF93DF93C8EFD8E06E
:100440000DC0C8D3CBDF892B49F0EAEAF8E0A4EF6E
:10045000B7E081918D93EC17FD07D9F7B4D38111E3
:10046000F0CFDF91CF9108958EEE92E09F938F931E
:10047000FAD6E0DE8BE093E09F938F93F4D634DFDF
:1004800086E393E008D750DF89E593E09F938F934D
:10049000EAD66ADF88E793E09F938F93E4D684E6F9
:1004A00090E04BD58DB79EB708960FB6F8949EBFD7
:1004B0000FBE8DBF08950F931F93CF93FC018081D2
:1004C000882351F08F01C0E0CF5F54D4F801EC0FC6
:1004D000F11D80818111F8CFCF911F910F91089567
:1004E000EADF8FEF47D48FEF45D48FEF43C40895F1
:1004F0000F931F93CF93DF93CDB7DEB7A0970FB6BF
:10050000F894DEBF0FBECDBF1F926F939F938F9362
:100510008EE993E09F938F938E010F5F1F4F1F9380
:100520000F93E9D6C801DCDF0FB6F894DEBF0FBE2B
:10053000CDBFA0960FB6F894DEBF0FBECDBFDF9142
:10054000CF911F910F910895CF93DF938FEF8093F9
:100550007F04E9D4EC0189EA93E09F938F9383D6DB
:100560000F900F90C650DF4F90917F049F3F21F472
:10057000DAD48C179D07C0F380917F048F3F41F43C
:1005800082EC93E09F938F936ED60F900F900DC0E7
:1005900080917F041F928F9385EE93E09F938F93BA
:1005A00062D60F900F900F900F9080917F04DF9193
:1005B000CF910895CF93DF9387EF93E091DFC4DF6E
:1005C00080918004863681F4C0E8D4E089811F924E
:1005D0008F938EEF93E09F938F9345D689810F90F1
:1005E0000F900F900F9001C08FEFDF91CF91089582
:1005F0001F93CF93DF93FC0120812223B1F0162FAC
:10060000EC0140E150E060EA74E010D6892B11F073
:10061000112359F082E194E04EDFCE0161DF40E129
:1006200050E0BE0180EA94E00FD6DF91CF911F9198
:1006300008951F93CF93DF93EC01162F82D320915F
:100640007D0491E0920F90937D04C20FD11D8883A9
:100650008F3F71F480917C048F5F80937C048330A2
:1006600049F410927D0410927C04892F90E00DC013
:1006700010927C04911307C010927D0410927C04A8
:100680008FEF9FEF02C08FEF9FEFDF91CF911F9110
:1006900008950F931F93CF93CFEF08E114E018C094
:1006A00060E280E894E0C5DF0196A9F080918004C3
:1006B00080937F04833250F41F928F931F930F9384
:1006C000D2D50F900F900F900F9002C0C0937E0470
:1006D00031D38111E5CFCF911F910F9108952398C8
:1006E0002B98229A2A98219A2998209A289812C100
:1006F000089568987098699A7198EDC10895529814
:100700005A98539A5B989EC20895A1E0B1E08C91EB
:100710008E7F8C93E2E0F1E080818E7F80838C91EC
:1007200082608C9380818D7F808343C30895A4E091
:10073000B1E08C918E7F8C93E5E0F1E080818E7F3B
:1007400080838C9182608C9380818D7F8083C8C3ED
:1007500008958FE3809365008FEE8093640081B1EC
:1007600011B882B18FEF82B994B114B895B185B93F
:1007700097B117B898B188B99AB11AB89BB18BB92B
:100780009DB11DB89EB18EB990B310BA91B381BB23
:1007900093B3907C93BB94B39F6394BBE1E0F1E08F
:1007A00090811082E2E0F1E090818083E4E0F1E06A
:1007B00090811082E5E0F1E090818083E7E0F1E054
:1007C00090811082E8E0F1E090818083AAE0B1E0BE
:1007D0009C911C92EBE0F1E0908180830A9A129840
:1007E0000B9A13980C9A14980D9A15980E9A1698BD
:1007F0000F9A179838984098399841983A984298A3
:100800003B9843983C9844983D9845983E98469824
:100810003F9847988C9181608C9380818E7F8083F4
:100820008C9182608C938081826080838C918460C3
:100830008C9380818460808340E060E881E690E072
:1008400061D013BE15BE58D04ADFCBD0D7D051DF10
:1008500056DF5BDF6CCF08951F920F920FB60F9299
:1008600011240BB60F922F933F934F935F936F9387
:100870007F938F939F93AF93BF93EF93FF93809159
:10088000B50481110EC0E0EBF4E01082FB98868184
:100890009781892BF1F0E091B604F091B704199596
:1008A00018C0E0EBF4E0818192819C012F5F3F4F03
:1008B0003283218392BD81BDA381B481CD01019694
:1008C000948383838C9180BD858181508583FA9A3E
:1008D000F99AFF91EF91BF91AF919F918F917F9185
:1008E0006F915F914F913F912F910F900BBE0F90A1
:1008F0000FBE0F901F9018951092B7041092B60477
:1009000080E008952FB7F8941BBEFC0160834083FC
:100910002FBF0895E4E6F0E080818B7F808381E53E
:100920008CBDE8EBF4E010821682158208951F92C8
:100930000F920FB60F9211240BB60F922F933F9385
:100940004F935F936F937F938F939F93AF93BF93D7
:10095000CF93DF93EF93FF939EB58091BC048230D9
:1009600011F1C8EBD4E0A981BA81FD019193FA831A
:10097000E983813019F011969C9101C090E0E8EB79
:10098000F4E0838181508383882311F09EBD14C0DD
:10099000E8EBF4E083E080830580F681E02D30977A
:1009A00059F0199509C0E8EBF4E0A181B281CD01BD
:1009B000019692838183DFCFFF91EF91DF91CF91F9
:1009C000BF91AF919F918F917F916F915F914F9167
:1009D0003F912F910F900BBE0F900FBE0F901F9065
:1009E0001895E5E6F0E080818F7E808381E080933A
:1009F000A10082E08093720080E00895E5E6F0E0D7
:100A000080818F7D808381E08093210180E89EE357
:100A1000909329018093280182E08093730080E005
:100A200008951F920F920FB60F9211240BB60F92DA
:100A30008F939F93EF93FF938091C600E091E6061A
:100A4000EF5FE093E6069091E506F0E0E951F94F9B
:100A500080838091E4068F5F8093E406FF91EF919D
:100A60009F918F910F900BBE0F900FBE0F901F9014
:100A700018951F920F920FB60F9211240BB60F927A
:100A80008F93EF93FF938091D106882389F0E091B3
:100A9000D206EF5FEF70E093D206F0E0EC52F94F30
:100AA00080818093C6008091D10681508093D106C9
:100AB0008091D106811105C0E1ECF0E080818F7D4D
:100AC0008083FF91EF918F910F900BBE0F900FBE1F
:100AD0000F901F901895E4E6F0E080818D7F808371
:100AE0001092C50087E68093C4001092C00088E988
:100AF0008093C1001092E5061092E6061092E4067B
:100B00001092D2061092D3061092D10680E008957A
:100B10001F920F920FB60F9211240BB60F928F9364
:100B20009F93EF93FF938091CE00E0915006EF5F8B
:100B3000EF77E093500690914F06F0E0EF5AF94FAF
:100B4000808380914E068F5F80934E06FF91EF91D8
:100B50009F918F910F900BBE0F900FBE0F901F9023
:100B600018951F920F920FB60F9211240BB60F9289
:100B70008F93EF93FF9380913B06882389F0E09158
:100B80003C06EF5FEF70E0933C06F0E0E25CF94F6B
:100B900080818093CE0080913B06815080933B06FC
:100BA00080913B06811105C0E9ECF0E080818F7DEA
:100BB0008083FF91EF918F910F900BBE0F900FBE2E
:100BC0000F901F90189590914E0681E0911101C0F1
:100BD00080E0089580914E068823E1F3E0914F066E
:100BE000EF5FEF77E0934F060FB6F8940F92809186
:100BF0004E06815080934E060F900FBEF0E0EF5AE4
:100C0000F94F8081089520913D062F5F2F709091BC
:100C10003B069031E1F3E22FF0E0E25CF94F808394
:100C200020933D060FB6F8940F9280913B068F5F9C
:100C300080933B060F900FBEE9ECF0E0808180626C
:100C400080830895E5E6F0E080818E7F80831092B6
:100C5000CD0087E68093CC001092C80088E980938D
:100C6000C90010924F061092500610924E06109234
:100C70003C0610923D0610923B0680E008951F92BC
:100C80000F920FB60F9211240BB60F928F939F9372
:100C9000EF93FF938091D600E0911A06EF5FEF711A
:100CA000E0931A0690911906F0E0E55EF94F808313
:100CB000809118068F5F80931806FF91EF919F91A6
:100CC0008F910F900BBE0F900FBE0F901F90189535
:100CD0001F920F920FB60F9211240BB60F928F93A3
:100CE000EF93FF9380910506882389F0E091060633
:100CF000EF5FEF70E0930606F0E0E85FF94F808168
:100D00008093D600809105068150809305068091DE
:100D10000506811105C0E1EDF0E080818F7D8083C3
:100D2000FF91EF918F910F900BBE0F900FBE0F9020
:100D30001F9018959091180681E0911101C080E0F4
:100D40000895809118068823E1F3E0911906EF5F7A
:100D5000EF71E09319060FB6F8940F928091180680
:100D60008150809318060F900FBEF0E0E55EF94FBA
:100D700080810895209107062F5F2F7090910506BE
:100D80009031E1F3E22FF0E0E85FF94F80832093A8
:100D900007060FB6F8940F92809105068F5F809337
:100DA00005060F900FBEE1EDF0E080818062808348
:100DB0000895E5E6F0E080818D7F80831092D50074
:100DC00087E68093D4001092D00088E98093D10008
:100DD0001092190610921A06109218061092060622
:100DE000109207061092050680E008951F920F9258
:100DF0000FB60F9211240BB60F928F939F93EF9320
:100E0000FF9380913601E091C405EF5FEF73E093AB
:100E1000C4059091C305F0E0EB53FA4F80838091B5
:100E2000C2058F5F8093C205FF91EF919F918F91D3
:100E30000F900BBE0F900FBE0F901F9018951F9232
:100E40000F920FB60F9211240BB60F928F93EF9360
:100E5000FF938091BF04882381F0E091C004EF5F8D
:100E6000E093C004F0E0EE53FB4F808180933601A5
:100E70008091BF0481508093BF048091BF04811191
:100E800005C0E1E3F1E080818F7D8083FF91EF91E8
:100E90008F910F900BBE0F900FBE0F901F90189563
:100EA0009091C1049F5F2091BF04E92FF0E0EE53C1
:100EB000FB4F80839093C1040FB6F8940F928091FA
:100EC000BF048F5F8093BF040F900FBEE1E3F1E09A
:100ED0008081806280830895E3DF80E090E0089560
:100EE000E5E6F0E080818B7F80831092350187E614
:100EF000809334011092300188E98093310110927F
:100F0000C3051092C4051092C2051092C00410923D
:100F1000C1041092BF048AE092E090930309809389
:100F2000020980E008950FB6F8940F928091F207BD
:100F30009091F3070F900FBE0895CF93DF9300D0E9
:100F40001F92CDB7DEB70FB6F8940F922091F2073B
:100F50003091F3070F900FBE3C832B832B813C8194
:100F6000820F931F9A8389830FB6F8940F92809112
:100F7000F2079091F3070F900FBE9C838B832B8118
:100F80003C8189819A812817390770F30F900F905F
:100F90000F900F90DF91CF9108951F920F920FB68F
:100FA0000F9211240BB60F922F933F934F935F93A1
:100FB0006F937F938F939F93AF93BF93EF93FF9321
:100FC0008091F2079091F30701969093F307809335
:100FD000F2078091E907811105C02EDA81E0809344
:100FE000E90703C01092E90754DBFF91EF91BF912D
:100FF000AF919F918F917F916F915F914F913F91B1
:101000002F910F900BBE0F900FBE0F901F90189551
:101010001F920F920FB60F9211242F933F934F936D
:101020005F936F937F938F939F93AF938091E70725
:101030009091E8078058914C9093E8078093E707D8
:10104000909329018091E707809328012091EA0776
:101050003091EB074091EC075091ED076091EE075E
:101060007091EF078091F0079091F107A1E0BED059
:101070002093EA073093EB074093EC075093ED077A
:101080006093EE077093EF078093F0079093F1075A
:10109000AF919F918F917F916F915F914F913F9110
:1010A0002F910F900FBE0F901F901895FF920F93E6
:1010B0001F93CF93DF9304EF17E0F801808590E052
:1010C0000A9668E170E07FD0F82ECDEC8C9FD12D90
:1010D0001124D695D695D6956D2F87E294E008DA3F
:1010E000DD0F8D2F880F880FD80F6F2D6D1B8EE2AF
:1010F00094E0FED9F80161856C9F612D11246695FD
:101100006695669585E394E0F3D9F80161856C9F57
:10111000812D1124869586958695880F982F990F95
:10112000990F890F681B8CE394E0E2D9F80162857E
:101130006C9F612D112466956695669583E494E015
:10114000D7D9F80162856C9FC12D1124C695C6952B
:10115000C695CC0F8C2F880F880FC80F6C1B8AE4A4
:1011600094E0C6D9DF91CF911F910F91FF90089520
:10117000DADE0E949400789481E594E09F938F9347
:1011800072D082EE94E0D9DE6FD98FE594E09F9320
:101190008F9369D061E085E794E02ADAC4DEEC0140
:1011A0000F900F900F900F90C958DE4FBCDEC817FC
:1011B000D907E0F7B8DEEC0160E089E794E018DADF
:1011C00075DFF8D9F1CF97FB072E16F4009406D0FF
:1011D00077FD08D017D007FC05D03EF49095819597
:1011E0009F4F0895709561957F4F08950024A7FD46
:1011F00000942A0F301D401D501D601D701D801D64
:10120000901D0895AA1BBB1B51E107C0AA1FBB1F5D
:10121000A617B70710F0A61BB70B881F991F5A9582
:10122000A9F780959095BC01CD010895FB01DC01E3
:101230004150504030F08D910190801919F40020F8
:10124000B9F7881B990B0895FB01DC014150504010
:1012500048F001900D920020C9F701C01D92415045
:101260005040E0F70895CF93DF93CDB7DEB7AE01DE
:101270004A5F5F4FFA0161917191AF01809102095C
:101280009091030966D0DF91CF9108956091020992
:101290007091030971C20F931F93CF93DF93E09175
:1012A0000209F0910309238121FF1BC08C01D0E0CA
:1012B000C0E0F80181918F016091020970910309EA
:1012C000DB011896ED91FC911997882331F019955F
:1012D000892B79F3DFEFCFEFECCF8AE01995892BDB
:1012E00019F08FEF9FEF02C08D2F9C2FDF91CF91D0
:1012F0001F910F9108950F931F93CF93DF93CDB755
:10130000DEB72E970FB6F894DEBF0FBECDBF0E89A5
:101310001F8986E08C831A8309838FEF9FE79E8362
:101320008D83AE01465E5F4F688D798DCE0101964B
:1013300010D0EF81F885E00FF11F10822E960FB6C6
:10134000F894DEBF0FBECDBFDF91CF911F910F91FB
:1013500008952F923F924F925F926F927F928F9259
:101360009F92AF92BF92CF92DF92EF92FF920F9334
:101370001F93CF93DF93CDB7DEB72B970FB6F894BB
:10138000DEBF0FBECDBF6C017B018A01FC0117825D
:101390001682838181FFBFC1CE0101963C01F60117
:1013A0009381F70193FD859193FF81917F018823BC
:1013B00009F4ADC1853239F493FD859193FF819194
:1013C0007F01853221F4B60190E0D6D1E8CF912C8F
:1013D000212C312CFFE1F315D8F08B3279F038F461
:1013E000803279F08332A1F4232D20611DC08D322B
:1013F00061F0803369F4232D216016C0832D826053
:10140000382EE32DE4603E2E2AC0F32DF8601DC077
:1014100037FC2DC020ED280F2A3040F08E32B9F471
:1014200036FC75C1232D2064322E19C036FE06C04D
:101430008AE0989E200D1124922E11C0EAE02E9E83
:10144000200D1124222EF32DF0623F2E08C08C3681
:1014500021F4832D8068382E02C0883641F4F701CC
:1014600093FD859193FF81917F018111B3CF982FD7
:101470009F7D9554933028F40C5F1F4F9FE3998311
:101480000DC0833631F0833771F0833509F055C0D4
:1014900020C0F801808189830E5F1F4F88248394C8
:1014A000912C530112C02801F2E04F0E511CF8019B
:1014B000A080B18036FE03C0692D70E002C06FEFDE
:1014C0007FEFC5014ED14C018201F32DFF773F2EF6
:1014D00015C0280122E0420E511CF801A080B18005
:1014E00036FE03C0692D70E002C06FEF7FEFC501CB
:1014F0002DD14C01F32DF0683F2E820133FC19C031
:10150000822D90E088169906A0F4B60180E290E062
:1015100033D12A94F5CFF50137FC859137FE8191BF
:101520005F01B60190E028D121102A9421E0821AAF
:1015300091088114910479F7E1C0843611F089365D
:1015400039F5F80137FE07C060817181828193818E
:101550000C5F1F4F08C060817181072E000C880B43
:10156000990B0E5F1F4FF32DFF763F2E97FF09C09B
:1015700090958095709561957F4F8F4F9F4FF06844
:101580003F2E2AE030E0A30133D1882E861844C0D4
:10159000853731F4232D2F7EB22E2AE030E025C08E
:1015A000932D997FB92E8F36C1F018F4883579F0D4
:1015B000AEC0803719F0883721F0A9C0E92FE0616B
:1015C000BE2EB4FE0DC0FB2DF460BF2E09C034FE4C
:1015D0000AC0292F2660B22E06C028E030E005C0E0
:1015E00020E130E002C020E132E0F801B7FE07C0A0
:1015F00060817181828193810C5F1F4F06C0608181
:10160000718180E090E00E5F1F4FA301F1D0882E22
:101610008618FB2DFF773F2E36FE0DC0232D2E7F23
:10162000A22E891458F434FE0BC032FC09C0832D5D
:101630008E7EA82E05C0B82CA32C03C0B82C01C0E8
:10164000B92CA4FE0FC0FE01E80DF11D808180338E
:1016500021F49A2D997EA92E09C0A2FE06C0B3944A
:10166000B39404C08A2D867809F0B394A3FC10C00B
:10167000A0FE06C0B21480F4280C922C9B180DC05A
:10168000B21458F4B60180E290E076D0B394F8CF6B
:10169000B21418F42B1802C0982C212CA4FE0FC0F1
:1016A000B60180E390E068D0A2FE16C0A1FC03C0A2
:1016B00088E790E002C088E590E0B6010CC08A2D72
:1016C000867851F0A1FE02C08BE201C080E2A7FC47
:1016D0008DE2B60190E050D0891430F4B60180E379
:1016E00090E04AD09A94F8CF8A94F301E80DF11D66
:1016F0008081B60190E040D08110F6CF222009F41D
:101700004ECEB60180E290E037D02A94F7CFF601B2
:101710008681978102C08FEF9FEF2B960FB6F894CA
:10172000DEBF0FBECDBFDF91CF911F910F91FF9014
:10173000EF90DF90CF90BF90AF909F908F907F9071
:101740006F905F904F903F902F900895FC0105900F
:10175000615070400110D8F7809590958E0F9F1FB3
:101760000895FC016150704001900110D8F78095F8
:1017700090958E0F9F1F08950F931F93CF93DF9324
:10178000FB01238121FD03C08FEF9FEF2CC022FFBF
:1017900016C046815781248135814217530744F48E
:1017A000A081B1819D012F5F3F4F318320838C93B6
:1017B000268137812F5F3F4F3783268314C08B01EB
:1017C000EC01FB010084F185E02D1995892BE1F6F0
:1017D000D80116968D919C911797019617969C9318
:1017E0008E931697CE01DF91CF911F910F9108959F
:1017F000FA01AA27283051F1203181F1E8946F9342
:101800006E7F6E5F7F4F8F4F9F4FAF4FB1E03ED0E7
:10181000B4E03CD0670F781F891F9A1FA11D680F85
:10182000791F8A1F911DA11D6A0F711D811D911DB8
:10183000A11D20D009F468943F912AE0269F11242D
:101840003019305D3193DEF6CF010895462F477091
:10185000405D4193B3E00FD0C9F7F6CF462F4F70EC
:10186000405D4A3318F0495D31FD4052419302D04A
:10187000A9F7EACFB4E0A6959795879577956795F0
:10188000BA95C9F700976105710508959B01AC01F0
:101890000A2E06945795479537952795BA95C9F717
:1018A000620F731F841F951FA01D0895F894FFCF2A
:1018B000080400000000000000000000000200001A
:1018C00000006C0700000000B56206090D00FFFF74
:1018D000000000000000FFFF0000172FAEF00AF02C
:1018E00009F000F001F00DF006F002F007F003F04F
:1018F00004F00EF00FF005F008F100F101F103F132
:1019000004F105F106B562060103000000000000C5
:10191000B5620600140001000000D008000000C2FB
:1019200001000700030000000000C07EB562060849
:101930000600E803010001000139B562063E2400FB
:10194000000016040004FF00010000010101030073
:101950000000000105000300000000010608FF0070
:1019600000000001A425B562060103000107011370
:1019700051B5620631200001010000320000000173
:101980000000008096980000000000000000800029
:101990000000006F00000029A8252E32580044697D
:1019A0007361626C696E67204E4D4541206D6573B1
:1019B00073616765732E2E2E0A0D004368616E6792
:1019C000696E6720726563656976696E6720667205
:1019D000657175656E637920746F2031205365637E
:1019E0002E2E2E0A0D0044697361626C696E6720A9
:1019F000756E6E6563657373617279206368616E7D
:101A00006E656C732E2E2E0D00456E61626C696ED4
:101A100067204E41562D505654206D657373616793
:101A200065732E2E2E0A0D004175746F2D636F6E37
:101A300066696775726174696F6E20697320636F80
:101A40006D706C657465210A0D00B5620107257320
:101A50002E76616C3D2531640077616974696E672B
:101A600020666F72206C6364207374617475730AEE
:101A70000D0054696D656F75742077616974696EC6
:101A80006720666F72204C434420726573706F6EDE
:101A900073650A0D006C6364207374617475732040
:101AA000253032780A0D0073656E646D65007765C8
:101AB00020617265206F6E20706167652025690A5C
:101AC0000D007061676520004C434473746174209D
:101AD000253032780A0D00746F702E6E3100746FED
:101AE000702E6E3200746F702E6E3300746F702E15
:101AF0006E3400746F702E6E3500746F702E6E36FB
:101B00000048656C6C6F20576F726C640A0D004E54
:101B1000656F372073657475702072657475726EA9
:0C1B200065640A0D00746F700030000056
:00000001FF
