S00F0000467265717265662E737265634A
S113000071C000008FC000008DC000008BC00000D4
S113001089C0000087C0000085C0000083C00000C4
S113002081C000007FC000007DC000007BC00000D4
S113003079C0000077C0000075C0000073C00000E4
S113004071C000006FC000006DC000006BC00000F4
S113005069C0000067C0000065C0000063C0000004
S1130060B5C300002DC4000053C400005BC00000F1
S113007059C0000057C000003EC3000053C0000038
S113008051C000004FC000004DC000004BC0000034
S11300908EC40000B5C4000045C0000043C0000089
S11300A041C000003FC00000CBC600003BC00000C0
S11300B039C0000037C0000035C00000D8C60000B9
S11300C031C000002FC000002DC0000027C5000073
S11300D04EC5000027C00000B8C50000DFC5000001
S11300E021C0000011241FBECFEFD1E2DEBFCDBF7F
S11300F000E00CBF14E0A0E0B2E0EEE6F6E100E0C0
S11301000BBF02C007900D92A631B107D9F727E0C3
S1130110A6E1B4E001C01D92A535B207E1F7F5D61A
S11301200C94350B6DCF64C20895E5EFF6E04DE411
S113013057E020E080E09191890F280FE417F5073C
S1130140D1F790914D07891308C081E090E0309178
S11301504E07321721F080E0089580E090E0089582
S11301608F929F92AF92BF92CF92DF92EF92FF92C3
S11301700F931F93CF93DF9300D0CDB7DEB7062F35
S1130180662399F1E82EF92E10E00F2EF3EC8F2E52
S1130190F3E09F2EF02D0F2EFFEDAF2EF2E0BF2ED9
S11301A0F02DCE0101966C01812F8F7031F49F9256
S11301B08F9238D70F900F9003C080E290E045D71C
S11301C0F70181917F011F928F93BF92AF92DF92CB
S11301D0CF9270D7DF92CF9225D71F5F0FB6F894D6
S11301E0DEBF0FBECDBF0113DFCF83EC93E09F933F
S11301F08F9318D70F900F900F900F900F90DF915F
S1130200CF911F910F91FF90EF90DF90CF90BF900F
S1130210AF909F908F900895DF92EF92FF920F938B
S11302201F93CF93DF937C01D62E662369F0EC01F4
S11302300FEF060F10E00F5F1F4F080F191F899172
S113024031D4C017D107D9F76D2DC70189DFDF91EC
S1130250CF911F910F91FF90EF90DF900895CF926F
S1130260DF92EF92FF920F931F93CF93DF93CDB75B
S1130270DEB7E3970FB6F894DEBF0FBECDBF88E2BA
S1130280E3E2F2E0DE01119601900D928A95E1F726
S11302908BE0EBE4F2E0DE01999601900D928A95F1
S11302A0E1F7CE0101967C016E0199E2C90ED11CE1
S11302B08E010E5C1F4F14C091918AA9890F8AABDD
S11302C09BA9890F8BABE017F107B1F76BE0CE0167
S11302D08996A2DFE2E0EE0EF11CCE14DF0451F0A9
S11302E0F70180818FA7818188AB1AAA1BAAFE011E
S11302F0BB96E2CFE3960FB6F894DEBF0FBECDBF38
S1130300DF91CF911F910F91FF90EF90DF90CF90ED
S11303100895CF93DF93CDB7DEB72E970FB6F89439
S1130320DEBF0FBECDBF8EE0E2E7F2E0DE01119644
S113033001900D928A95E1F76EE0CE0101966CDF93
S11303402E960FB6F894DEBF0FBECDBFDF91CF91CE
S11303500895CF93DF93CDB7DEB7AC970FB6F8947B
S1130360DEBF0FBECDBF8CE2E0E8F2E0DE01119605
S113037001900D928A95E1F76CE2CE0101964CDF73
S1130380AC960FB6F894DEBF0FBECDBFDF91CF9110
S11303900895CF93DF93CDB7DEB72B970FB6F894BC
S11303A0DEBF0FBECDBF8BE0ECEAF2E0DE011196BA
S11303B001900D928A95E1F76BE0CE0101962CDF56
S11303C02B960FB6F894DEBF0FBECDBFDF91CF9151
S11303D0089590911904923070F4292F30E0F901B6
S11303E0EA53FC4F4081841316C0F901ED50F94FD4
S11303F080839F5F11C09D3538F4E92FF0E0ED5004
S1130400F94F80839F5F08C0109219048EDE892BF8
S113041041F490E001C090E09093190480E090E0F2
S1130420089581E090E00895CF93DF931BD3882350
S113043009F43EC01ED3CDDF892BD1F1E9EFF6E0FC
S1130440A3E4B6E027E437E081918D93E217F30744
S1130450D9F7C3E4D6E08D818F938C818F938E81FD
S11304601F928F938F811F928F9384EE92E09F93BC
S11304708F93D8D58B818F938A818F9389818F9322
S113048088818F938A851F928F9389851F928F937A
S113049088851F928F9385EF92E09F938F93C2D5A7
S11304A08DB79EB744960FB6F8949EBF0FBE8DBF0E
S11304B027D4882311F02BD4F5D2DF91CF9108955E
S11304C0B3CF089589E193E09F938F93ABD5C7DEB3
S11304D086E393E09F938F93A5D51BDF82E693E099
S11304E0B9D537DF85E893E09F938F939BD551DF90
S11304F084EA93E09F938F9395D584E690E070D43B
S11305008DB79EB708960FB6F8949EBF0FBE8DBFE9
S113051008950F931F93CF93DF93CDB7DEB7609702
S11305200FB6F894DEBF0FBECDBF1F926F939F939B
S11305308F938AEC93E09F938F93CE0101969F93C0
S11305408F93B8D589810FB6F894DEBF0FBECDBFA7
S1130550882349F08E010E5F1F4F3BD3F801819130
S11305608F018111FACF60960FB6F894DEBF0FBEEB
S1130570CDBFDF91CF911F910F91089523982B98B0
S1130580229A2A98219A2998209A289812C1089583
S113059068987098699A7198EDC1089552985A981C
S11305A0539A5B989EC20895A1E0B1E08C918E7F2E
S11305B08C93E2E0F1E080818E7F80838C91826075
S11305C08C9380818D7F808323C30895A4E0B1E060
S11305D08C918E7F8C93E5E0F1E080818E7F808327
S11305E08C9182608C9380818D7F8083CCC30895AD
S11305F08FE3809365008FEE8093640081B111B81E
S113060082B18FEF82B994B114B895B185B997B11D
S113061017B898B188B99AB11AB89BB18BB99DB182
S11306201DB89EB18EB990B310BA91B381BB93B388
S1130630907C93BB94B39F6394BBE1E0F1E0908121
S11306401082E2E0F1E090818083E4E0F1E09081C7
S11306501082E5E0F1E090818083E7E0F1E09081B1
S11306601082E8E0F1E090818083AAE0B1E09C91FF
S11306701C92EBE0F1E0908180830A9A12980B9A25
S113068013980C9A14980D9A15980E9A16980F9A16
S1130690179838984098399841983A9842983B98D6
S11306A043983C9844983D9845983E9846983F987E
S11306B047988C9181608C9380818E7F80838C910C
S11306C082608C938081826080838C9184608C931F
S11306D080818460808340E060E881E690E061D0BE
S11306E013BE15BE58D04ADFCBD0D7D051DF56DF6A
S11306F05BDF6CCF08951F920F920FB60F921124F7
S11307000BB60F922F933F934F935F936F937F9307
S11307108F939F93AF93BF93EF93FF93809125049F
S113072081110EC0E0E2F4E01082FB98868197818B
S1130730892BF1F0E0912604F0912704199518C053
S1130740E0E2F4E0818192819C012F5F3F4F32838C
S1130750218392BD81BDA381B481CD01019694838F
S113076083838C9180BD858181508583FA9AF99A1F
S1130770FF91EF91BF91AF919F918F917F916F9175
S11307805F914F913F912F910F900BBE0F900FBE31
S11307900F901F901895109227041092260480E061
S11307A008952FB7F8941BBEFC01608340832FBFCC
S11307B00895E4E6F0E080818B7F808381E58CBD41
S11307C0E8E2F4E010821682158208951F920F92D7
S11307D00FB60F9211240BB60F922F933F934F93A2
S11307E05F936F937F938F939F93AF93BF93CF93B5
S11307F0DF93EF93FF939EB580912C04823011F127
S1130800C8E2D4E0A981BA81FD019193FA83E98316
S1130810813019F011969C9101C090E0E8E2F4E077
S1130820838181508383882311F09EBD14C0E8E244
S1130830F4E083E080830580F681E02D309759F061
S1130840199509C0E8E2F4E0A181B281CD010196D5
S113085092838183DFCFFF91EF91DF91CF91BF919D
S1130860AF919F918F917F916F915F914F913F9144
S11308702F910F900BBE0F900FBE0F901F901895E5
S1130880E5E6F0E080818F7E808381E08093A100A3
S113089082E08093720080E00895E5E6F0E08081D4
S11308A08F7D808381E08093210180E89EE3909393
S11308B029018093280182E08093730080E00895E9
S11308C01F920F920FB60F9211240BB60F928F93B3
S11308D09F93EF93FF938091C600E0913605EF5FFD
S11308E0E093360590913505F0E0E95CFA4F80839A
S11308F0809134058F5F80933405FF91EF919F9130
S11309008F910F900BBE0F900FBE0F901F901895F4
S11309101F920F920FB60F9211240BB60F928F9362
S1130920EF93FF9380912105882389F0E0912205BC
S1130930EF5FEF70E0932205F0E0EC5DFA4F808109
S11309408093C60080912105815080932105809178
S11309502105811105C0E1ECF0E080818F7D808369
S1130960FF91EF918F910F900BBE0F900FBE0F90E0
S11309701F901895E4E6F0E080818D7F80831092CB
S1130980C50087E68093C4001092C00088E9809374
S1130990C10010923505109236051092340510925C
S11309A02205109223051092210580E008951F92DC
S11309B00F920FB60F9211240BB60F928F939F9341
S11309C0EF93FF938091CE00E091A004EF5FEF7767
S11309D0E093A00490919F04F0E0EF55FB4F8083D7
S11309E080919E048F5F80939E04FF91EF919F916D
S11309F08F910F900BBE0F900FBE0F901F90189504
S1130A001F920F920FB60F9211240BB60F928F9371
S1130A10EF93FF9380918B04882389F0E0918C04F9
S1130A20EF5FEF70E0938C04F0E0E257FB4F8081BE
S1130A308093CE0080918B04815080938B048091AD
S1130A408B04811105C0E9ECF0E080818F7D808307
S1130A50FF91EF918F910F900BBE0F900FBE0F90EF
S1130A601F90189590919E0481E0911101C080E03F
S1130A70089580919E048823E1F3E0919F04EF5F41
S1130A80EF77E0939F040FB6F8940F9280919E0441
S1130A90815080939E040F900FBEF0E0EF55FB4F02
S1130AA08081089520918D042F5F2F7090918B0485
S1130AB09031E1F3E22FF0E0E257FB4F8083209383
S1130AC08D040FB6F8940F9280918B048F5F8093FE
S1130AD08B040F900FBEE9ECF0E08081806280838C
S1130AE00895E5E6F0E080818E7F80831092CD004A
S1130AF087E68093CC001092C80088E98093C900EF
S1130B0010929F041092A00410929E0410928C04E0
S1130B1010928D0410928B0480E008951F920F921E
S1130B200FB60F9211240BB60F928F939F93EF93EE
S1130B30FF938091D600E0916A04EF5FEF71E09338
S1130B406A0490916904F0E0E559FB4F8083809139
S1130B5068048F5F80936804FF91EF919F918F9158
S1130B600F900BBE0F900FBE0F901F9018951F9201
S1130B700F920FB60F9211240BB60F928F93EF932F
S1130B80FF9380915504882389F0E0915604EF5F28
S1130B90EF70E0935604F0E0E85AFB4F80818093B5
S1130BA0D60080915504815080935504809155045A
S1130BB0811105C0E1EDF0E080818F7D8083FF919C
S1130BC0EF918F910F900BBE0F900FBE0F901F905F
S1130BD01895209157042F5F2F70909155049031F0
S1130BE0E1F3E22FF0E0E85AFB4F808320935704AF
S1130BF00FB6F8940F92809155048F5F809355043B
S1130C000F900FBEE1EDF0E0808180628083089553
S1130C10E5E6F0E080818D7F80831092D50087E641
S1130C208093D4001092D00088E98093D100109270
S1130C30690410926A041092680410925604109287
S1130C4057041092550480E008951F920F920FB636
S1130C500F9211240BB60F928F939F93EF93FF93F0
S1130C6080913601E0914404EF5FEF70E093440417
S1130C7090914304F0E0EB5BFB4F8083809142044E
S1130C808F5F80934204FF91EF919F918F910F901A
S1130C900BBE0F900FBE0F901F9018951F920F92CE
S1130CA00FB60F9211240BB60F928F93EF93FF930D
S1130CB080912F04882389F0E0913004EF5FEF7076
S1130CC0E0933004F0E0EE5CFB4F808180933601CA
S1130CD080912F04815080932F0480912F048111DF
S1130CE005C0E1E3F1E080818F7D8083FF91EF9186
S1130CF08F910F900BBE0F900FBE0F901F90189501
S1130D009091420481E0911101C080E008958091A6
S1130D1042048823E1F3E0914304EF5FEF70E09332
S1130D2043040FB6F8940F9280914204815080934B
S1130D3042040F900FBEF0E0EB5BFB4F80810895FF
S1130D40209131042F5F2F7090912F049031E1F3A3
S1130D50E22FF0E0EE5CFB4F8083209331040FB66A
S1130D60F8940F9280912F048F5F80932F040F903B
S1130D700FBEE1E3F1E08081806280830895E0DFCB
S1130D8080E090E00895E5E6F0E080818B7F808349
S1130D901092350187E6809334011092300188E97E
S1130DA0809331011092430410924404109242043F
S1130DB0109230041092310410922F0480E092E0DB
S1130DC0909352078093510780E008950FB6F894EA
S1130DD00F9280914106909142060F900FBE0895A4
S1130DE0CF93DF9300D01F92CDB7DEB70FB6F89440
S1130DF00F9220914106309142060F900FBE3C8322
S1130E002B832B813C81820F931F9A8389830FB696
S1130E10F8940F9280914106909142060F900FBE74
S1130E209C838B832B813C8189819A812817390784
S1130E3070F30F900F900F900F90DF91CF91089562
S1130E401F920F920FB60F9211248F939F9380914C
S1130E504106909142060196909342068093410682
S1130E609F918F910F900FBE0F901F9018951F9216
S1130E700F920FB60F9211242F933F934F935F93CA
S1130E806F937F938F939F93AF9380913706909145
S1130E9038068058914C9093380680933706909387
S1130EA029018091370680932801209139063091D9
S1130EB03A0640913B0650913C0660913D06709184
S1130EC03E0680913F0690914006A1E09FD020937A
S1130ED0390630933A0640933B0650933C066093A0
S1130EE03D0670933E0680933F0690934006AF9173
S1130EF09F918F917F916F915F914F913F912F912E
S1130F000F900FBE0F901F90189560DF0CD9789446
S1130F1080EE93E09F938F9385D082EE94E060DF20
S1130F20D1DA8EEE93E09F938F937CD04FDFEC0168
S1130F300F900F900F900F9003E416E00F2EFDEC2E
S1130F40FF2EF02DC358DF4FBBDA40DFC817D90797
S1130F50D8F73CDFEC01F80160856F9D612D112409
S1130F6066956695669570E084E094E0D2DAF801BF
S1130F7060856F9D812D1124869586958695880FB1
S1130F80982F990F990F890F681B70E087E094E000
S1130F90C0DAF80161856F9D612D1124669566950F
S1130FA0669570E08AE094E0B4DAF80161856F9D9B
S1130FB0812D1124869586958695880F982F990FF3
S1130FC0990F890F681B70E08DE094E0A2DAF801B4
S1130FD062856F9D612D112466956695669570E016
S1130FE080E194E096DAF80162856F9D812D1124E9
S1130FF0869586958695880F982F990F990F890F56
S1131000681B70E083E194E084DA9CCF0024A7FDA0
S113101000942A0F301D401D501D601D701D801D41
S1131020901D0895CF93DF93CDB7DEB7AE014A5F2D
S11310305F4FFA0161917191AF01809151079091D5
S1131040520766D0DF91CF91089560915107709156
S1131050520771C20F931F93CF93DF93E09151070F
S1131060F0915207238121FF1BC08C01D0E0C0E026
S1131070F80181918F016091510770915207DB0152
S11310801896ED91FC911997882331F01995892BC5
S113109079F3DFEFCFEFECCF8AE01995892B19F0C4
S11310A08FEF9FEF02C08D2F9C2FDF91CF911F9167
S11310B00F9108950F931F93CF93DF93CDB7DEB7AE
S11310C02E970FB6F894DEBF0FBECDBF0E891F89D1
S11310D086E08C831A8309838FEF9FE79E838D8339
S11310E0AE01465E5F4F688D798DCE01019610D0BA
S11310F0EF81F885E00FF11F10822E960FB6F89459
S1131100DEBF0FBECDBFDF91CF911F910F91089528
S11311102F923F924F925F926F927F928F929F9203
S1131120AF92BF92CF92DF92EF92FF920F931F93F1
S1131130CF93DF93CDB7DEB72B970FB6F894DEBF0E
S11311400FBECDBF6C017B018A01FC0117821682A0
S1131150838181FFBFC1CE0101963C01F6019381D9
S1131160F70193FD859193FF81917F01882309F411
S1131170ADC1853239F493FD859193FF81917F014F
S1131180853221F4B60190E0D6D1E8CF912C212C00
S1131190312CFFE1F315D8F08B3279F038F480323A
S11311A079F08332A1F4232D20611DC08D3261F0CA
S11311B0803369F4232D216016C0832D8260382E7C
S11311C0E32DE4603E2E2AC0F32DF8601DC037FCE9
S11311D02DC020ED280F2A3040F08E32B9F436FCB1
S11311E075C1232D2064322E19C036FE06C08AE054
S11311F0989E200D1124922E11C0EAE02E9E200DFF
S11312001124222EF32DF0623F2E08C08C3621F4D7
S1131210832D8068382E02C0883641F4F70193FD8F
S1131220859193FF81917F018111B3CF982F9F7D89
S11312309554933028F40C5F1F4F9FE399830DC09E
S1131240833631F0833771F0833509F055C020C0FF
S1131250F801808189830E5F1F4F88248394912C29
S1131260530112C02801F2E04F0E511CF801A08076
S1131270B18036FE03C0692D70E002C06FEF7FEFCE
S1131280C5014ED14C018201F32DFF773F2E15C0CD
S1131290280122E0420E511CF801A080B18036FEE4
S11312A003C0692D70E002C06FEF7FEFC5012DD13F
S11312B04C01F32DF0683F2E820133FC19C0822DBE
S11312C090E088169906A0F4B60180E290E033D14C
S11312D02A94F5CFF50137FC859137FE81915F01A2
S11312E0B60190E028D121102A9421E0821A9108B5
S11312F08114910479F7E1C0843611F0893639F507
S1131300F80137FE07C060817181828193810C5F8F
S11313101F4F08C060817181072E000C880B990B48
S11313200E5F1F4FF32DFF763F2E97FF09C0909558
S11313308095709561957F4F8F4F9F4FF0683F2E3A
S11313402AE030E0A30133D1882E861844C08537C3
S113135031F4232D2F7EB22E2AE030E025C0932DC8
S1131360997FB92E8F36C1F018F4883579F0AEC064
S1131370803719F0883721F0A9C0E92FE061BE2E2B
S1131380B4FE0DC0FB2DF460BF2E09C034FE0AC0AC
S1131390292F2660B22E06C028E030E005C020E1E7
S11313A030E002C020E132E0F801B7FE07C06081FE
S11313B07181828193810C5F1F4F06C060817181AE
S11313C080E090E00E5F1F4FA301F1D0882E8618B5
S11313D0FB2DFF773F2E36FE0DC0232D2E7FA22E30
S11313E0891458F434FE0BC032FC09C0832D8E7E60
S11313F0A82E05C0B82CA32C03C0B82C01C0B92C4E
S1131400A4FE0FC0FE01E80DF11D8081803321F49C
S11314109A2D997EA92E09C0A2FE06C0B394B39456
S113142004C08A2D867809F0B394A3FC10C0A0FEF2
S113143006C0B21480F4280C922C9B180DC0B21470
S113144058F4B60180E290E076D0B394F8CFB214A9
S113145018F42B1802C0982C212CA4FE0FC0B6013E
S113146080E390E068D0A2FE16C0A1FC03C088E728
S113147090E002C088E590E0B6010CC08A2D867821
S113148051F0A1FE02C08BE201C080E2A7FC8DE214
S1131490B60190E050D0891430F4B60180E390E0B6
S11314A04AD09A94F8CF8A94F301E80DF11D808113
S11314B0B60190E040D08110F6CF222009F44ECE40
S11314C0B60180E290E037D02A94F7CFF601868106
S11314D0978102C08FEF9FEF2B960FB6F894DEBF73
S11314E00FBECDBFDF91CF911F910F91FF90EF9071
S11314F0DF90CF90BF90AF909F908F907F906F9030
S11315005F904F903F902F900895FC01059061509B
S113151070400110D8F7809590958E0F9F1F089505
S1131520FC016150704001900110D8F780959095AE
S11315308E0F9F1F08950F931F93CF93DF93FB018B
S1131540238121FD03C08FEF9FEF2CC022FF16C023
S113155046815781248135814217530744F4A08181
S1131560B1819D012F5F3F4F318320838C9326816E
S113157037812F5F3F4F3783268314C08B01EC01E3
S1131580FB010084F185E02D1995892BE1F6D80142
S113159016968D919C911797019617969C938E930E
S11315A01697CE01DF91CF911F910F910895FA0103
S11315B0AA27283051F1203181F1E8946F936E7F8E
S11315C06E5F7F4F8F4F9F4FAF4FB1E03ED0B4E07F
S11315D03CD0670F781F891F9A1FA11D680F791FC0
S11315E08A1F911DA11D6A0F711D811D911DA11DD1
S11315F020D009F468943F912AE0269F11243019E1
S1131600305D3193DEF6CF010895462F4770405D7B
S11316104193B3E00FD0C9F7F6CF462F4F70405D2A
S11316204A3318F0495D31FD4052419302D0A9F785
S1131630EACFB4E0A6959795879577956795BA957F
S1131640C9F700976105710508959B01AC010A2E45
S113165006945795479537952795BA95C9F7620F1C
S1111660731F841F951FA01D0895F894FFCFDB
S113166E0000000200000000BF0600000000B5628A
S113167E06090D00FFFF000000000000FFFF000040
S113168E172FAEF00AF009F000F001F00DF006F09D
S113169E02F007F003F004F00EF00FF005F008F17D
S11316AE00F101F103F104F105F106B5620601033F
S11316BE000000000000B5620600140001000000E6
S11316CED008000000C20100070003000000000063
S11316DEC07EB56206080600E80301000100013968
S11316EEB562063E2400000016040004FF0001004B
S11316FE00010101030000000001050003000000C9
S113170E00010608FF0000000001A425B5620601D1
S113171E03000107011351B56206312000010100D7
S113172E00320000000100000080969800000000C6
S113173E0000000080000000006F00000029A825B2
S113174E2E325800446174652020256420256420BF
S113175E256420200054696D652025643A25643A79
S113176E25642020555443202020202045706F638B
S113177E682020256C750D0A0044697361626C69DA
S113178E6E67204E4D4541206D65737361676573B9
S113179E2E2E2E0A0D004368616E67696E672072E5
S11317AE6563656976696E67206672657175656EC7
S11317BE637920746F20313030206D732E2E2E0AF3
S11317CE0D0044697361626C696E6720756E6E6597
S11317DE63657373617279206368616E6E656C7391
S11317EE2E2E2E0D00456E61626C696E67204E4181
S11317FE562D505654206D657373616765732E2E86
S113180E2E0A0D004175746F2D636F6E66696775D0
S113181E726174696F6E20697320636F6D706C658D
S113182E7465210A0D00B562010725732E76616C6D
S113183E3D253164FFFFFF003078253032782000DB
S113184E48656C6C6F20576F726C640A0D004E65A0
S113185E6F372073657475702072657475726E655A
S113186E640A0D006E31006E32006E33006E340069
S109187E6E35006E360019
S9030000FC
