:1000000071C000008FC000008DC000008BC00000D8
:1000100089C0000087C0000085C0000083C00000C8
:1000200081C000007FC000007DC000007BC00000D8
:1000300079C0000077C0000075C0000073C00000E8
:1000400071C000006FC000006DC000006BC00000F8
:1000500069C0000067C0000065C0000063C0000008
:1000600095C300000DC4000033C400005BC0000055
:1000700059C0000057C000001EC3000053C000005C
:1000800051C000004FC000004DC000004BC0000038
:100090006EC4000095C4000045C0000043C00000CD
:1000A00041C000003FC00000ABC600003BC00000E4
:1000B00039C0000037C0000035C00000B8C60000DD
:1000C00031C000002FC000002DC0000007C5000097
:1000D0002EC5000027C0000098C50000BFC5000065
:1000E00021C0000011241FBECFEFD1E2DEBFCDBF83
:1000F00000E00CBF13E0A0E0B2E0E2EFF5E100E0C9
:100100000BBF02C007900D92A83EB107D9F727E0B8
:10011000A8EEB3E001C01D92A732B207E1F7D5D631
:100120000C94F70A6DCF44C208958F929F92AF92BC
:10013000BF92CF92DF92EF92FF920F931F93CF93D4
:10014000DF9300D0CDB7DEB7062F662399F1E82EF6
:10015000F92E10E00F2EFBE98F2EF3E09F2EF02DED
:100160000F2EF7EBAF2EF2E0BF2EF02DCE01019651
:100170006C01812F8F7031F49F928F9215D70F9061
:100180000F9003C080E290E022D7F70181917F01B8
:100190001F928F93BF92AF92DF92CF924DD7DF9293
:1001A000CF9202D71F5F0FB6F894DEBF0FBECDBF50
:1001B0000113DFCF8BE993E09F938F93F5D60F90D8
:1001C0000F900F900F900F90DF91CF911F910F9193
:1001D000FF90EF90DF90CF90BF90AF909F908F9067
:1001E0000895DF92EF92FF920F931F93CF93DF93C7
:1001F0007C01D62E662369F0EC010FEF060F10E0AC
:100200000F5F1F4F080F191F89912CD4C017D107FA
:10021000D9F76D2DC70189DFDF91CF911F910F9124
:10022000FF90EF90DF900895CF92DF92EF92FF92D0
:100230000F931F93CF93DF93CDB7DEB7E3970FB63E
:10024000F894DEBF0FBECDBF88E2E3E2F2E0DE014C
:10025000119601900D928A95E1F78BE0EBE4F2E0C4
:10026000DE01999601900D928A95E1F7CE010196F3
:100270007C016E0199E2C90ED11C8E010E5C1F4FEC
:1002800014C091918AA9890F8AAB9BA9890F8BAB66
:10029000E017F107B1F76BE0CE018996A2DFE2E04B
:1002A000EE0EF11CCE14DF0451F0F70180818FA710
:1002B000818188AB1AAA1BAAFE01BB96E2CFE39606
:1002C0000FB6F894DEBF0FBECDBFDF91CF911F9167
:1002D0000F91FF90EF90DF90CF900895CF93DF9331
:1002E000CDB7DEB72E970FB6F894DEBF0FBECDBFE9
:1002F0008EE0E2E7F2E0DE01119601900D928A9520
:10030000E1F76EE0CE0101966CDF2E960FB6F89401
:10031000DEBF0FBECDBFDF91CF910895CF93DF93A6
:10032000CDB7DEB7AC970FB6F894DEBF0FBECDBF2A
:100330008CE2E0E8F2E0DE01119601900D928A95E0
:10034000E1F76CE2CE0101964CDFAC960FB6F89463
:10035000DEBF0FBECDBFDF91CF910895CF93DF9366
:10036000CDB7DEB72B970FB6F894DEBF0FBECDBF6B
:100370008BE0ECEAF2E0DE01119601900D928A9595
:10038000E1F76BE0CE0101962CDF2B960FB6F894C7
:10039000DEBF0FBECDBFDF91CF9108959091EB03EB
:1003A000923070F4292F30E0F901E256FC4F408181
:1003B000841314C0F901EB53F94F80839F5F0FC082
:1003C0009D3538F4E92FF0E0EB53F94F80839F5FC0
:1003D00006C01092EB0381E090E0089590E09093C6
:1003E000EB0380E090E00895CF93DF931BD3882345
:1003F00009F43EC01ED3D2DF892BD1F1EBECF6E03D
:10040000A5E1B6E029E137E081918D93E217F3078A
:10041000D9F7C5E1D6E08D818F938C818F938E8142
:100420001F928F938F811F928F938CEB92E09F93FB
:100430008F93BAD58B818F938A818F9389818F9384
:1004400088818F938A851F928F9389851F928F93BE
:1004500088851F928F938DEC92E09F938F93A4D504
:100460008DB79EB744960FB6F8949EBF0FBE8DBF52
:1004700027D4882311F02BD4F5D2DF91CF910895A2
:10048000B3CF089581EF92E09F938F938DD5CCDE0B
:100490008EE093E09F938F9387D520DF8AE393E0EC
:1004A0009BD53CDF8DE593E09F938F937DD556DF01
:1004B0008CE793E09F938F9377D584E690E070D498
:1004C0008DB79EB708960FB6F8949EBF0FBE8DBF2E
:1004D00008950F931F93CF93DF93CDB7DEB7609747
:1004E0000FB6F894DEBF0FBECDBF1F926F939F93E0
:1004F0008F9382EA93E09F938F93CE0101969F930F
:100500008F939AD589810FB6F894DEBF0FBECDBF09
:10051000882349F08E010E5F1F4F3BD3F801819174
:100520008F018111FACF60960FB6F894DEBF0FBE2F
:10053000CDBFDF91CF911F910F91089523982B98F4
:10054000229A2A98219A2998209A289812C10895C7
:1005500068987098699A7198EDC1089552985A9860
:10056000539A5B989EC20895A1E0B1E08C918E7F72
:100570008C93E2E0F1E080818E7F80838C918260B9
:100580008C9380818D7F808323C30895A4E0B1E0A4
:100590008C918E7F8C93E5E0F1E080818E7F80836B
:1005A0008C9182608C9380818D7F8083CCC30895F1
:1005B0008FE3809365008FEE8093640081B111B862
:1005C00082B18FEF82B994B114B895B185B997B162
:1005D00017B898B188B99AB11AB89BB18BB99DB1C7
:1005E0001DB89EB18EB990B310BA91B381BB93B3CD
:1005F000907C93BB94B39F6394BBE1E0F1E0908166
:100600001082E2E0F1E090818083E4E0F1E090810B
:100610001082E5E0F1E090818083E7E0F1E09081F5
:100620001082E8E0F1E090818083AAE0B1E09C9143
:100630001C92EBE0F1E0908180830A9A12980B9A69
:1006400013980C9A14980D9A15980E9A16980F9A5A
:10065000179838984098399841983A9842983B981A
:1006600043983C9844983D9845983E9846983F98C2
:1006700047988C9181608C9380818E7F80838C9150
:1006800082608C938081826080838C9184608C9363
:1006900080818460808340E060E881E690E061D002
:1006A00013BE15BE58D04ADFCBD0D7D051DF56DFAE
:1006B0005BDF6CCF08951F920F920FB60F9211243B
:1006C0000BB60F922F933F934F935F936F937F934C
:1006D0008F939F93AF93BF93EF93FF938091F70313
:1006E00081110EC0E2EFF3E01082FB9886819781C2
:1006F000892BF1F0E091F803F091F903199518C0F6
:10070000E2EFF3E0818192819C012F5F3F4F3283C2
:10071000218392BD81BDA381B481CD0101969483D3
:1007200083838C9180BD858181508583FA9AF99A63
:10073000FF91EF91BF91AF919F918F917F916F91B9
:100740005F914F913F912F910F900BBE0F900FBE75
:100750000F901F9018951092F9031092F80380E003
:1007600008952FB7F8941BBEFC01608340832FBF10
:100770000895E4E6F0E080818B7F808381E58CBD85
:10078000EAEFF3E010821682158208951F920F920D
:100790000FB60F9211240BB60F922F933F934F93E6
:1007A0005F936F937F938F939F93AF93BF93CF93F9
:1007B000DF93EF93FF939EB58091FE03823011F19A
:1007C000CAEFD3E0A981BA81FD019193FA83E9834D
:1007D000813019F011969C9101C090E0EAEFF3E0AE
:1007E000838181508383882311F09EBD14C0EAEF7A
:1007F000F3E083E080830580F681E02D309759F0A7
:10080000199509C0EAEFF3E0A181B281CD0101960B
:1008100092838183DFCFFF91EF91DF91CF91BF91E1
:10082000AF919F918F917F916F915F914F913F9188
:100830002F910F900BBE0F900FBE0F901F90189529
:10084000E5E6F0E080818F7E808381E08093A100E7
:1008500082E08093720080E00895E5E6F0E0808118
:100860008F7D808381E08093210180E89EE39093D7
:1008700029018093280182E08093730080E008952D
:100880001F920F920FB60F9211240BB60F928F93F7
:100890009F93EF93FF938091C600E0910805EF5F6F
:1008A000E093080590910705F0E0E75FFA4F808339
:1008B000809106058F5F80930605FF91EF919F91D0
:1008C0008F910F900BBE0F900FBE0F901F90189539
:1008D0001F920F920FB60F9211240BB60F928F93A7
:1008E000EF93FF938091F304882389F0E091F4045F
:1008F000EF5FEF70E093F404F0E0EA50FB4F80818B
:100900008093C6008091F30481508093F30480911A
:10091000F304811105C0E1ECF0E080818F7D8083DC
:10092000FF91EF918F910F900BBE0F900FBE0F9024
:100930001F901895E4E6F0E080818D7F808310920F
:10094000C50087E68093C4001092C00088E98093B8
:10095000C10010920705109208051092060510922A
:10096000F4041092F5041092F30480E008951F92AD
:100970000F920FB60F9211240BB60F928F939F9385
:10098000EF93FF938091CE00E0917204EF5FEF77D9
:10099000E093720490917104F0E0ED58FB4F808376
:1009A000809170048F5F80937004FF91EF919F910D
:1009B0008F910F900BBE0F900FBE0F901F90189548
:1009C0001F920F920FB60F9211240BB60F928F93B6
:1009D000EF93FF9380915D04882389F0E0915E049A
:1009E000EF5FEF70E0935E04F0E0E05AFB4F808130
:1009F0008093CE0080915D04815080935D0480914E
:100A00005D04811105C0E9ECF0E080818F7D808379
:100A1000FF91EF918F910F900BBE0F900FBE0F9033
:100A20001F9018959091700481E0911101C080E0B1
:100A30000895809170048823E1F3E0917104EF5FE1
:100A4000EF77E09371040FB6F8940F9280917004E1
:100A50008150809370040F900FBEF0E0ED58FB4F73
:100A60008081089520915F042F5F2F7090915D0425
:100A70009031E1F3E22FF0E0E05AFB4F80832093C6
:100A80005F040FB6F8940F9280915D048F5F80939E
:100A90005D040F900FBEE9ECF0E0808180628083FE
:100AA0000895E5E6F0E080818E7F80831092CD008E
:100AB00087E68093CC001092C80088E98093C90033
:100AC00010927104109272041092700410925E04DD
:100AD00010925F0410925D0480E008951F920F92BF
:100AE0000FB60F9211240BB60F928F939F93EF9333
:100AF000FF938091D600E0913C04EF5FEF71E093AB
:100B00003C0490913B04F0E0E35CFB4F80838091D8
:100B10003A048F5F80933A04FF91EF919F918F91F8
:100B20000F900BBE0F900FBE0F901F9018951F9245
:100B30000F920FB60F9211240BB60F928F93EF9373
:100B4000FF9380912704882389F0E0912804EF5FC8
:100B5000EF70E0932804F0E0E65DFB4F8081809326
:100B6000D600809127048150809327048091270428
:100B7000811105C0E1EDF0E080818F7D8083FF91E0
:100B8000EF918F910F900BBE0F900FBE0F901F90A3
:100B90001895209129042F5F2F7090912704903190
:100BA000E1F3E22FF0E0E65DFB4F80832093290420
:100BB0000FB6F8940F92809127048F5F80932704DB
:100BC0000F900FBEE1EDF0E0808180628083089598
:100BD000E5E6F0E080818D7F80831092D50087E686
:100BE0008093D4001092D00088E98093D1001092B5
:100BF0003B0410923C0410923A0410922804109284
:100C000029041092270480E008951F920F920FB6D6
:100C10000F9211240BB60F928F939F93EF93FF9334
:100C200080913601E0911604EF5FEF70E0931604B7
:100C300090911504F0E0E95EFB4F808380911404ED
:100C40008F5F80931404FF91EF919F918F910F908C
:100C50000BBE0F900FBE0F901F9018951F920F9212
:100C60000FB60F9211240BB60F928F93EF93FF9351
:100C700080910104882389F0E0910204EF5FEF7016
:100C8000E0930204F0E0EC5FFB4F8081809336013B
:100C900080910104815080930104809101048111AD
:100CA00005C0E1E3F1E080818F7D8083FF91EF91CA
:100CB0008F910F900BBE0F900FBE0F901F90189545
:100CC0009091140481E0911101C080E00895809119
:100CD00014048823E1F3E0911504EF5FEF70E093D3
:100CE00015040FB6F8940F928091140481508093EC
:100CF00014040F900FBEF0E0E95EFB4F8081089571
:100D0000209103042F5F2F70909101049031E1F343
:100D1000E22FF0E0EC5FFB4F8083209303040FB6DB
:100D2000F8940F92809101048F5F809301040F90DB
:100D30000FBEE1E3F1E08081806280830895E0DF0F
:100D400080E090E00895E5E6F0E080818B7F80838D
:100D50001092350187E6809334011092300188E9C2
:100D6000809331011092150410921604109214040D
:100D700010920204109203041092010480E092E0A9
:100D8000909324078093230780E008950FB6F8948A
:100D90000F9280911306909114060F900FBE089544
:100DA000CF93DF9300D01F92CDB7DEB70FB6F89484
:100DB0000F9220911306309114060F900FBE3C83C2
:100DC0002B832B813C81820F931F9A8389830FB6DB
:100DD000F8940F9280911306909114060F900FBE15
:100DE0009C838B832B813C8189819A8128173907C9
:100DF00070F30F900F900F900F90DF91CF910895A7
:100E00001F920F920FB60F9211248F939F93809190
:100E1000130690911406019690931406809313067E
:100E20009F918F910F900FBE0F901F9018951F925A
:100E30000F920FB60F9211242F933F934F935F930E
:100E40006F937F938F939F93AF93809109069091B7
:100E50000A068058914C90930A0680930906909355
:100E60002901809109068093280120910B06309179
:100E70000C0640910D0650910E0660910F06709180
:100E800010068091110690911206A1E081D0209366
:100E90000B0630930C0640930D0650930E0660939C
:100EA0000F06709310068093110690931206AF916F
:100EB0009F918F917F916F915F914F913F912F9172
:100EC0000F900FBE0F901F90189560DF2CD978946B
:100ED00088EB93E09F938F9367D082EE94E060DF7E
:100EE000D1DA86EC93E09F938F935ED04FDFEC01D5
:100EF0000F900F900F900F9005E116E00F2EFDEC74
:100F0000FF2EF02DCC53D64FBBDA40DFC817D907E0
:100F1000D8F73CDFEC01F80160856F9D612D11244D
:100F200066956695669570E08CED93E0D2DAF801EF
:100F300060856F9D812D1124869586958695880FF5
:100F4000982F990F990F890F681B70E08FED93E030
:100F5000C0DAF80161856F9D612D11246695669553
:100F6000669570E082EE93E0B4DAF80161856F9DDA
:100F7000812D1124869586958695880F982F990F37
:100F8000990F890F681B70E085EE93E0A2DABACF63
:100F90000024A7FD00942A0F301D401D501D601D28
:100FA000701D801D901D0895CF93DF93CDB7DEB7E0
:100FB000AE014A5F5F4FFA0161917191AF0180917B
:100FC00023079091240766D0DF91CF910895609117
:100FD00023077091240771C20F931F93CF93DF9360
:100FE000E0912307F0912407238121FF1BC08C018E
:100FF000D0E0C0E0F80181918F01609123077091EA
:101000002407DB011896ED91FC911997882331F0A4
:101010001995892B79F3DFEFCFEFECCF8AE01995A3
:10102000892B19F08FEF9FEF02C08D2F9C2FDF913E
:10103000CF911F910F9108950F931F93CF93DF933B
:10104000CDB7DEB72E970FB6F894DEBF0FBECDBF7B
:101050000E891F8986E08C831A8309838FEF9FE7AF
:101060009E838D83AE01465E5F4F688D798DCE0184
:10107000019610D0EF81F885E00FF11F10822E96B7
:101080000FB6F894DEBF0FBECDBFDF91CF911F9199
:101090000F9108952F923F924F925F926F927F929D
:1010A0008F929F92AF92BF92CF92DF92EF92FF9278
:1010B0000F931F93CF93DF93CDB7DEB72B970FB668
:1010C000F894DEBF0FBECDBF6C017B018A01FC012D
:1010D00017821682838181FFBFC1CE0101963C0138
:1010E000F6019381F70193FD859193FF81917F0133
:1010F000882309F4ADC1853239F493FD859193FFBE
:1011000081917F01853221F4B60190E0D6D1E8CFFC
:10111000912C212C312CFFE1F315D8F08B3279F092
:1011200038F4803279F08332A1F4232D20611DC080
:101130008D3261F0803369F4232D216016C0832D38
:101140008260382EE32DE4603E2E2AC0F32DF86035
:101150001DC037FC2DC020ED280F2A3040F08E3204
:10116000B9F436FC75C1232D2064322E19C036FE29
:1011700006C08AE0989E200D1124922E11C0EAE04C
:101180002E9E200D1124222EF32DF0623F2E08C03A
:101190008C3621F4832D8068382E02C0883641F4C5
:1011A000F70193FD859193FF81917F018111B3CF69
:1011B000982F9F7D9554933028F40C5F1F4F9FE329
:1011C00099830DC0833631F0833771F0833509F090
:1011D00055C020C0F801808189830E5F1F4F88248D
:1011E0008394912C530112C02801F2E04F0E511C40
:1011F000F801A080B18036FE03C0692D70E002C006
:101200006FEF7FEFC5014ED14C018201F32DFF77C7
:101210003F2E15C0280122E0420E511CF801A0808B
:10122000B18036FE03C0692D70E002C06FEF7FEF22
:10123000C5012DD14C01F32DF0683F2E820133FC06
:1012400019C0822D90E088169906A0F4B60180E2BC
:1012500090E033D12A94F5CFF50137FC859137FE24
:1012600081915F01B60190E028D121102A9421E0FC
:10127000821A91088114910479F7E1C0843611F043
:10128000893639F5F80137FE07C0608171818281A6
:1012900093810C5F1F4F08C060817181072E000C85
:1012A000880B990B0E5F1F4FF32DFF763F2E97FF94
:1012B00009C090958095709561957F4F8F4F9F4F96
:1012C000F0683F2E2AE030E0A30133D1882E861843
:1012D00044C0853731F4232D2F7EB22E2AE030E032
:1012E00025C0932D997FB92E8F36C1F018F488351B
:1012F00079F0AEC0803719F0883721F0A9C0E92F06
:10130000E061BE2EB4FE0DC0FB2DF460BF2E09C0FF
:1013100034FE0AC0292F2660B22E06C028E030E035
:1013200005C020E130E002C020E132E0F801B7FE64
:1013300007C060817181828193810C5F1F4F06C05D
:101340006081718180E090E00E5F1F4FA301F1D0BA
:10135000882E8618FB2DFF773F2E36FE0DC0232DDD
:101360002E7FA22E891458F434FE0BC032FC09C023
:10137000832D8E7EA82E05C0B82CA32C03C0B82CBC
:1013800001C0B92CA4FE0FC0FE01E80DF11D808143
:10139000803321F49A2D997EA92E09C0A2FE06C0A1
:1013A000B394B39404C08A2D867809F0B394A3FC57
:1013B00010C0A0FE06C0B21480F4280C922C9B181A
:1013C0000DC0B21458F4B60180E290E076D0B39428
:1013D000F8CFB21418F42B1802C0982C212CA4FEBC
:1013E0000FC0B60180E390E068D0A2FE16C0A1FC59
:1013F00003C088E790E002C088E590E0B6010CC029
:101400008A2D867851F0A1FE02C08BE201C080E2F5
:10141000A7FC8DE2B60190E050D0891430F4B601FB
:1014200080E390E04AD09A94F8CF8A94F301E80DD3
:10143000F11D8081B60190E040D08110F6CF2220CE
:1014400009F44ECEB60180E290E037D02A94F7CF6F
:10145000F6018681978102C08FEF9FEF2B960FB622
:10146000F894DEBF0FBECDBFDF91CF911F910F91DA
:10147000FF90EF90DF90CF90BF90AF909F908F90B4
:101480007F906F905F904F903F902F900895FC0158
:101490000590615070400110D8F7809590958E0F9F
:1014A0009F1F0895FC016150704001900110D8F712
:1014B000809590958E0F9F1F08950F931F93CF9344
:1014C000DF93FB01238121FD03C08FEF9FEF2CC031
:1014D00022FF16C046815781248135814217530768
:1014E00044F4A081B1819D012F5F3F4F3183208360
:1014F0008C93268137812F5F3F4F3783268314C01B
:101500008B01EC01FB010084F185E02D1995892BFD
:10151000E1F6D80116968D919C9117970196179632
:101520009C938E931697CE01DF91CF911F910F91CF
:101530000895FA01AA27283051F1203181F1E89469
:101540006F936E7F6E5F7F4F8F4F9F4FAF4FB1E0B6
:101550003ED0B4E03CD0670F781F891F9A1FA11DB1
:10156000680F791F8A1F911DA11D6A0F711D811DB2
:10157000911DA11D20D009F468943F912AE0269F77
:1015800011243019305D3193DEF6CF010895462FD6
:101590004770405D4193B3E00FD0C9F7F6CF462FB7
:1015A0004F70405D4A3318F0495D31FD4052419320
:1015B00002D0A9F7EACFB4E0A695979587957795DD
:1015C0006795BA95C9F700976105710508959B0164
:1015D000AC010A2E06945795479537952795BA95ED
:1015E000C9F7620F731F841F951FA01D0895F894FB
:0215F000FFCF2B
:1015F20000000002000000009F0600000000B5622B
:1016020006090D00FFFF000000000000FFFF0000C0
:10161200172FAEF00AF009F000F001F00DF006F01D
:1016220002F007F003F004F00EF00FF005F008F1FD
:1016320000F101F103F104F105F106B562060103BF
:10164200000000000000B562060014000100000066
:10165200D008000000C201000700030000000000E3
:10166200C07EB56206080600083E010001007A123B
:10167200B562063E2400000016040004FF000100CB
:101682000001010103000000000105000300000049
:1016920000010608FF0000000001A425B562060152
:1016A20003000107011351252E325800446174656D
:1016B2002020256420256420256420200054696DA3
:1016C200652025643A25643A256420205554432038
:1016D2002020202045706F63682020256C750D0A3C
:1016E2000044697361626C696E67204E4D4541200A
:1016F2006D657373616765732E2E2E0A0D00436844
:10170200616E67696E6720726563656976696E6787
:10171200206672657175656E637920746F20313051
:1017220030206D732E2E2E0A0D0044697361626C97
:10173200696E6720756E6E65636573736172792079
:101742006368616E6E656C732E2E2E0D00456E61A0
:10175200626C696E67204E41562D505654206D655D
:101762007373616765732E2E2E0A0D004175746FB7
:101772002D636F6E66696775726174696F6E206939
:101782007320636F6D706C657465210A0D00B5621C
:10179200010725732E76616C3D253164FFFFFF0042
:1017A200307825303278200048656C6C6F20576F96
:1017B200726C640A0D004E656F3720736574757024
:1017C2002072657475726E65640A0D006E31006E6A
:0817D20032006E33006E34009A
:00000001FF
