:1000000071C000008FC000008DC000008BC00000D8
:1000100089C0000087C0000085C0000083C00000C8
:1000200081C000007FC000007DC000007BC00000D8
:1000300079C0000077C0000075C0000073C00000E8
:1000400071C000006FC000006DC000006BC00000F8
:1000500069C0000067C0000065C0000063C0000008
:10006000FEC2000076C300009CC300005BC000001D
:1000700059C0000057C0000087C2000053C00000F4
:1000800051C000004FC000004DC000004BC0000038
:10009000D7C30000FEC3000045C0000043C00000FD
:1000A00041C000003FC00000EBC500003BC00000A5
:1000B00039C0000037C0000035C00000F8C500009E
:1000C00031C000002FC000002DC0000070C400002F
:1000D00097C4000027C00000E2C4000009C500006A
:1000E00021C0000011241FBECFEFD1E2DEBFCDBF83
:1000F00000E00CBF13E0A0E0B2E0E6EDF3E100E0C9
:100100000BBF02C007900D92AE38B107D9F725E0BA
:10011000AEE8B3E001C01D92A734B207E1F715D6EF
:100120000C94E9096DCFADC108956F927F928F92C3
:100130009F92AF92BF92CF92DF92EF92FF920F9376
:100140001F93CF93DF9300D0CDB7DEB76623B1F115
:10015000682E792E88248A94860E912C8FEF881A27
:10016000980A00E010E00F2EF7EBCF2EF2E0DF2E22
:10017000F02DFE0131967F01A62EB12CF1E0AF1AD1
:10018000B108F30181913F011F928F93DF92CF92CB
:10019000FF92EF9243D6FF92EF92F8D50FB6F89404
:1001A000DEBF0FBECDBFA016B10619F080E290E011
:1001B00000D60F5F1F4F0815190519F786E693E063
:1001C0009F938F93E3D50F900F900F900F900F9008
:1001D000DF91CF911F910F91FF90EF90DF90CF9023
:1001E000BF90AF909F908F907F906F900895DF9217
:1001F000EF92FF920F931F93CF93DF937C01D62E44
:10020000662369F0EC010FEF060F10E00F5F1F4F40
:10021000080F191F89918FD3C017D107D9F76D2DFA
:10022000C70183DFDF91CF911F910F91FF90EF9076
:10023000DF900895CF92DF92EF92FF920F931F937A
:10024000CF93DF93CDB7DEB7E3970FB6F894DEBF59
:100250000FBECDBF88E2E3E2F2E0DE01119601902D
:100260000D928A95E1F78BE0EBE4F2E0DE019996DE
:1002700001900D928A95E1F7CE0101967C016E0105
:1002800099E2C90ED11C8E010E5C1F4F14C09191D2
:100290008AA9890F8AAB9BA9890F8BABE017F1075D
:1002A000B1F76BE0CE018996A2DFE2E0EE0EF11C21
:1002B000CE14DF0451F0F70180818FA7818188ABD4
:1002C0001AAA1BAAFE01BB96E2CFE3960FB6F894DA
:1002D000DEBF0FBECDBFDF91CF911F910F91FF9079
:1002E000EF90DF90CF900895CF93DF93CDB7DEB737
:1002F0002E970FB6F894DEBF0FBECDBF8EE0E2E7BB
:10030000F2E0DE01119601900D928A95E1F76EE020
:10031000CE0101966CDF2E960FB6F894DEBF0FBEAD
:10032000CDBFDF91CF910895CF93DF93CDB7DEB7E7
:10033000AC970FB6F894DEBF0FBECDBF8CE2E0E8FD
:10034000F2E0DE01119601900D928A95E1F76CE2E0
:10035000CE0101964CDFAC960FB6F894DEBF0FBE0F
:10036000CDBFDF91CF910895CF93DF93CDB7DEB7A7
:100370002B970FB6F894DEBF0FBECDBF8BE0ECEA33
:10038000F2E0DE01119601900D928A95E1F76BE0A3
:10039000CE0101962CDF2B960FB6F894DEBF0FBE70
:1003A000CDBFDF91CF910895A6D2882311F0AAD2B4
:1003B000F1D3D0D3882311F0D4D3BDC208958CEBF0
:1003C00092E09F938F93E2D435DF89ED92E09F9383
:1003D0008F93DCD489DF85E093E0F0D4A5DF88E259
:1003E00093E09F938F93D2D4BFDF87E493E09F93F2
:1003F0008F93CCD484E690E013D48DB79EB7089643
:100400000FB6F8949EBF0FBE8DBFCEDFFECF2398F0
:100410002B98229A2A98219A2998209A289812C1D2
:10042000089568987098699A7198EDC108955298E6
:100430005A98539A5B989EC20895A1E0B1E08C91BE
:100440008E7F8C93E2E0F1E080818E7F80838C91BF
:1004500082608C9380818D7F808304C30895A4E0A3
:10046000B1E08C918E7F8C93E5E0F1E080818E7F0E
:1004700080838C9182608C9380818D7F8083ADC3DB
:1004800008958FE3809365008FEE8093640081B1BF
:1004900011B882B18FEF82B994B114B895B185B912
:1004A00097B117B898B188B99AB11AB89BB18BB9FE
:1004B0009DB11DB89EB18EB990B310BA91B381BBF6
:1004C00093B3907C93BB94B39F6394BBE1E0F1E062
:1004D00090811082E2E0F1E090818083E4E0F1E03D
:1004E00090811082E5E0F1E090818083E7E0F1E027
:1004F00090811082E8E0F1E090818083AAE0B1E091
:100500009C911C92EBE0F1E0908180830A9A129812
:100510000B9A13980C9A14980D9A15980E9A16988F
:100520000F9A179838984098399841983A98429875
:100530003B9843983C9844983D9845983E984698F7
:100540003F9847988C9181608C9380818E7F8083C7
:100550008C9182608C938081826080838C91846096
:100560008C9380818460808340E060E881E690E045
:1005700061D013BE15BE58D04ADFCBD0D7D051DFE3
:1005800056DF5BDF6CCF08951F920F920FB60F926C
:1005900011240BB60F922F933F934F935F936F935A
:1005A0007F938F939F93AF93BF93EF93FF9380912C
:1005B000930381110EC0EEE8F3E01082FB98868170
:1005C0009781892BF1F0E0919403F09195031995AF
:1005D00018C0EEE8F3E0818192819C012F5F3F4FCC
:1005E0003283218392BD81BDA381B481CD01019667
:1005F000948383838C9180BD858181508583FA9A11
:10060000F99AFF91EF91BF91AF919F918F917F9157
:100610006F915F914F913F912F910F900BBE0F9073
:100620000FBE0F901F90189510929503109294038F
:1006300080E008952FB7F8941BBEFC0160834083CF
:100640002FBF0895E4E6F0E080818B7F808381E511
:100650008CBDE6E9F3E010821682158208951F92A0
:100660000F920FB60F9211240BB60F922F933F9358
:100670004F935F936F937F938F939F93AF93BF93AA
:10068000CF93DF93EF93FF939EB580919A038230CF
:1006900011F1C6E9D3E0A981BA81FD019193FA83F2
:1006A000E983813019F011969C9101C090E0E6E950
:1006B000F3E0838181508383882311F09EBD14C0B1
:1006C000E6E9F3E083E080830580F681E02D309752
:1006D00059F0199509C0E6E9F3E0A181B281CD0195
:1006E000019692838183DFCFFF91EF91DF91CF91CC
:1006F000BF91AF919F918F917F916F915F914F913A
:100700003F912F910F900BBE0F900FBE0F901F9037
:100710001895E5E6F0E080818F7E808381E080930C
:10072000A10082E08093720080E00895E5E6F0E0A9
:1007300080818F7D808381E08093210180E89EE32A
:10074000909329018093280182E08093730080E0D8
:1007500008951F920F920FB60F9211240BB60F92AD
:100760008F939F93EF93FF938091C600E0913404A1
:10077000EF5FE093340490913304F0E0EB5CFB4FC7
:100780008083809132048F5F80933204FF91EF91D8
:100790009F918F910F900BBE0F900FBE0F901F90E7
:1007A00018951F920F920FB60F9211240BB60F924D
:1007B0008F93EF93FF9380911F04882389F0E0913A
:1007C0002004EF5FEF70E0932004F0E0EE5DFB4F5C
:1007D00080818093C60080911F04815080931F0404
:1007E00080911F04811105C0E1ECF0E080818F7DD4
:1007F0008083FF91EF918F910F900BBE0F900FBEF2
:100800000F901F901895E4E6F0E080818D7F808343
:100810001092C50087E68093C4001092C00088E95A
:100820008093C10010923304109234041092320469
:10083000109220041092210410921F0480E0089569
:100840001F920F920FB60F9211240BB60F928F9337
:100850009F93EF93FF938091CE00E0910E04EF5FA2
:10086000EF70E0930E0490910D04F0E0E15FFB4F18
:10087000808380910C048F5F80930C04FF91EF9133
:100880009F918F910F900BBE0F900FBE0F901F90F6
:1008900018951F920F920FB60F9211240BB60F925C
:1008A0008F93EF93FF938091F903882389F0E09170
:1008B000FA03EF5FEF70E093FA03F0E0E450FC4FCF
:1008C00080818093CE008091F90381508093F90359
:1008D0008091F903811105C0E9ECF0E080818F7D02
:1008E0008083FF91EF918F910F900BBE0F900FBE01
:1008F0000F901F90189590910C0481E0911101C008
:1009000080E0089580910C048823E1F3E0910D04C8
:10091000EF5FEF70E0930D040FB6F8940F928091A3
:100920000C04815080930C040F900FBEF0E0E15F47
:10093000FB4F808108952091FB032F5F2F709091D2
:10094000F9039031E1F3E22FF0E0E450FC4F8083B3
:100950002093FB030FB6F8940F928091F9038F5FF9
:100960008093F9030F900FBEE9ECF0E08081806284
:1009700080830895E5E6F0E080818E7F8083109289
:10098000CD0087E68093CC001092C80088E9809360
:10099000C90010920D0410920E0410920C041092D3
:1009A000FA031092FB031092F90380E008951F925E
:1009B0000F920FB60F9211240BB60F928F939F9345
:1009C000EF93FF938091D600E091D803EF5FEF7132
:1009D000E093D8039091D703F0E0E752FC4F808377
:1009E0008091D6038F5F8093D603FF91EF919F9103
:1009F0008F910F900BBE0F900FBE0F901F90189508
:100A00001F920F920FB60F9211240BB60F928F9375
:100A1000EF93FF938091C303882389F0E091C4038F
:100A2000EF5FEF70E093C403F0E0EA53FC4F808186
:100A30008093D6008091C30381508093C30380913B
:100A4000C303811105C0E1EDF0E080818F7D8083DB
:100A5000FF91EF918F910F900BBE0F900FBE0F90F3
:100A60001F901895E5E6F0E080818D7F80831092DD
:100A7000D50087E68093D4001092D00088E9809357
:100A8000D1001092D7031092D8031092D60310927F
:100A9000C4031092C5031092C30380E008951F920F
:100AA0000F920FB60F9211240BB60F928F939F9354
:100AB000EF93FF9380913601E091B203EF5FEF7007
:100AC000E093B2039091B103F0E0ED54FC4F8083CA
:100AD0008091B0038F5F8093B003FF91EF919F915E
:100AE0008F910F900BBE0F900FBE0F901F90189517
:100AF0001F920F920FB60F9211240BB60F928F9385
:100B0000EF93FF9380919D03882389F0E0919E03EA
:100B1000EF5FEF70E0939E03F0E0E056FC4F8081C2
:100B20008093360180919D03815080939D03809135
:100B30009D03811105C0E1E3F1E080818F7D808319
:100B4000FF91EF918F910F900BBE0F900FBE0F9002
:100B50001F9018959091B00381E0911101C080E041
:100B600008958091B0038823E1F3E091B103EF5F32
:100B7000EF70E093B1030FB6F8940F928091B00339
:100B800081508093B0030F900FBEF0E0ED54FC4F06
:100B90008081089520919F032F5F2F7090919D0376
:100BA0009031E1F3E22FF0E0E056FC4F8083209398
:100BB0009F030FB6F8940F9280919D038F5F8093EF
:100BC0009D030F900FBEE1E3F1E08081806280839E
:100BD0000895E0DF80E090E00895E5E6F0E08081B0
:100BE0008B7F80831092350187E6809334011092C9
:100BF000300188E9809331011092B1031092B20361
:100C00001092B00310929E0310929F0310929D03C6
:100C100080E092E0909344058093430580E008953E
:100C2000CF93DF9300D01F92CDB7DEB70FB6F89405
:100C30000F9220913F05309140050F900FBE3C83ED
:100C40002B832B813C81820F931F9A8389830FB65C
:100C5000F8940F9280913F05909140050F900FBE40
:100C60009C838B832B813C8189819A81281739074A
:100C700070F30F900F900F900F90DF91CF91089528
:100C80001F920F920FB60F9211248F939F93809112
:100C90003F059091400501969093400580933F0554
:100CA0009F918F910F900FBE0F901F9018951F92DC
:100CB0000F920FB60F9211242F933F934F935F9390
:100CC0006F937F938F939F93AF938091350590910E
:100CD00036058058914C9093360580933505909356
:100CE00029018091350580932801209137053091A5
:100CF00038054091390550913A0560913B05709156
:100D00003C0580913D0590913E05A1E033D02093B4
:100D10003705309338054093390550933A05609371
:100D20003B0570933C0580933D0590933E05AF9144
:100D30009F918F917F916F915F914F913F912F91F3
:100D40000F900FBE0F901F901895EDD9789489E6FB
:100D500093E09F938F931AD082EE94E061DF0F901F
:100D60000F90C7E7D3E02BDBDF93CF930FD00F902B
:100D70000F90F9CF0024A7FD00942A0F301D401DCD
:100D8000501D601D701D801D901D0895CF93DF9331
:100D9000CDB7DEB7AE014A5F5F4FFA016191719145
:100DA000AF01809143059091440566D0DF91CF91CA
:100DB0000895609143057091440571C20F931F938C
:100DC000CF93DF93E0914305F0914405238121FF08
:100DD0001BC08C01D0E0C0E0F80181918F016091CF
:100DE000430570914405DB011896ED91FC9119972C
:100DF000882331F01995892B79F3DFEFCFEFECCF12
:100E00008AE01995892B19F08FEF9FEF02C08D2F83
:100E10009C2FDF91CF911F910F9108950F931F93F6
:100E2000CF93DF93CDB7DEB72E970FB6F894DEBF22
:100E30000FBECDBF0E891F8986E08C831A8309837C
:100E40008FEF9FE79E838D83AE01465E5F4F688D77
:100E5000798DCE01019610D0EF81F885E00FF11F5A
:100E600010822E960FB6F894DEBF0FBECDBFDF9175
:100E7000CF911F910F9108952F923F924F925F92C1
:100E80006F927F928F929F92AF92BF92CF92DF929A
:100E9000EF92FF920F931F93CF93DF93CDB7DEB7FF
:100EA0002B970FB6F894DEBF0FBECDBF6C017B0150
:100EB0008A01FC0117821682838181FFBFC1CE01A6
:100EC00001963C01F6019381F70193FD859193FF13
:100ED00081917F01882309F4ADC1853239F493FDF6
:100EE000859193FF81917F01853221F4B60190E0D5
:100EF000D6D1E8CF912C212C312CFFE1F315D8F07D
:100F00008B3279F038F4803279F08332A1F4232DDA
:100F100020611DC08D3261F0803369F4232D216082
:100F200016C0832D8260382EE32DE4603E2E2AC049
:100F3000F32DF8601DC037FC2DC020ED280F2A309E
:100F400040F08E32B9F436FC75C1232D2064322E68
:100F500019C036FE06C08AE0989E200D1124922EFC
:100F600011C0EAE02E9E200D1124222EF32DF062F6
:100F70003F2E08C08C3621F4832D8068382E02C0A5
:100F8000883641F4F70193FD859193FF81917F01AC
:100F90008111B3CF982F9F7D9554933028F40C5F27
:100FA0001F4F9FE399830DC0833631F0833771F073
:100FB000833509F055C020C0F801808189830E5F18
:100FC0001F4F88248394912C530112C02801F2E012
:100FD0004F0E511CF801A080B18036FE03C0692D70
:100FE00070E002C06FEF7FEFC5014ED14C0182016E
:100FF000F32DFF773F2E15C0280122E0420E511C31
:10100000F801A080B18036FE03C0692D70E002C0F7
:101010006FEF7FEFC5012DD14C01F32DF0683F2E0E
:10102000820133FC19C0822D90E088169906A0F445
:10103000B60180E290E033D12A94F5CFF50137FC78
:10104000859137FE81915F01B60190E028D1211092
:101050002A9421E0821A91088114910479F7E1C061
:10106000843611F0893639F5F80137FE07C0608102
:101070007181828193810C5F1F4F08C060817181F3
:10108000072E000C880B990B0E5F1F4FF32DFF7678
:101090003F2E97FF09C090958095709561957F4F81
:1010A0008F4F9F4FF0683F2E2AE030E0A30133D1ED
:1010B000882E861844C0853731F4232D2F7EB22E1A
:1010C0002AE030E025C0932D997FB92E8F36C1F0EC
:1010D00018F4883579F0AEC0803719F0883721F0E0
:1010E000A9C0E92FE061BE2EB4FE0DC0FB2DF46057
:1010F000BF2E09C034FE0AC0292F2660B22E06C0BA
:1011000028E030E005C020E130E002C020E132E01C
:10111000F801B7FE07C060817181828193810C5F05
:101120001F4F06C06081718180E090E00E5F1F4F0D
:10113000A301F1D0882E8618FB2DFF773F2E36FEB7
:101140000DC0232D2E7FA22E891458F434FE0BC01F
:1011500032FC09C0832D8E7EA82E05C0B82CA32C8E
:1011600003C0B82C01C0B92CA4FE0FC0FE01E80DCD
:10117000F11D8081803321F49A2D997EA92E09C01A
:10118000A2FE06C0B394B39404C08A2D867809F0F9
:10119000B394A3FC10C0A0FE06C0B21480F4280CC7
:1011A000922C9B180DC0B21458F4B60180E290E066
:1011B00076D0B394F8CFB21418F42B1802C0982C40
:1011C000212CA4FE0FC0B60180E390E068D0A2FEFF
:1011D00016C0A1FC03C088E790E002C088E590E05B
:1011E000B6010CC08A2D867851F0A1FE02C08BE2B8
:1011F00001C080E2A7FC8DE2B60190E050D08914D6
:1012000030F4B60180E390E04AD09A94F8CF8A9403
:10121000F301E80DF11D8081B60190E040D081100E
:10122000F6CF222009F44ECEB60180E290E037D00E
:101230002A94F7CFF6018681978102C08FEF9FEF46
:101240002B960FB6F894DEBF0FBECDBFDF91CF91C6
:101250001F910F91FF90EF90DF90CF90BF90AF90D4
:101260009F908F907F906F905F904F903F902F90C6
:101270000895FC010590615070400110D8F78095E9
:1012800090958E0F9F1F0895FC0161507040019052
:101290000110D8F7809590958E0F9F1F08950F939A
:1012A0001F93CF93DF93FB01238121FD03C08FEFB9
:1012B0009FEF2CC022FF16C04681578124813581C3
:1012C0004217530744F4A081B1819D012F5F3F4F26
:1012D000318320838C93268137812F5F3F4F378363
:1012E000268314C08B01EC01FB010084F185E02D05
:1012F0001995892BE1F6D80116968D919C91179737
:10130000019617969C938E931697CE01DF91CF91FD
:101310001F910F910895FA01AA27283051F1203129
:1013200081F1E8946F936E7F6E5F7F4F8F4F9F4F79
:10133000AF4FB1E03ED0B4E03CD0670F781F891FBB
:101340009A1FA11D680F791F8A1F911DA11D6A0F89
:10135000711D811D911DA11D20D009F468943F913C
:101360002AE0269F11243019305D3193DEF6CF013B
:101370000895462F4770405D4193B3E00FD0C9F701
:10138000F6CF462F4F70405D4A3318F0495D31FD6E
:101390004052419302D0A9F7EACFB4E0A6959795C1
:1013A000879577956795BA95C9F700976105710597
:1013B00008959B01AC010A2E0694579547953795E1
:1013C0002795BA95C9F7620F731F841F951FA01D3B
:0613D0000895F894FFCF20
:1013D6000000000200000000E90500000000B56200
:1013E60006090D00FFFF000000000000FFFF0000DF
:1013F600172FAEF00AF009F000F001F00DF006F03C
:1014060002F007F003F004F00EF00FF005F008F11B
:1014160000F101F103F104F105F106B562060103DD
:10142600000000000000B562060014000100000084
:10143600D008000000C20100070003000000000001
:10144600C07EB562060806006400010001007A123B
:10145600B562063E2400000016040004FF000100E9
:101466000001010103000000000105000300000067
:1014760000010608FF0000000001A425B562060170
:1014860003000107011351252E3258004469736188
:10149600626C696E67204E4D4541206D65737361C0
:1014A6006765732E2E2E0A0D004368616E67696E9E
:1014B6006720726563656976696E67206672657115
:1014C60075656E637920746F20313030206D732E10
:1014D6002E2E0A0D0044697361626C696E67207571
:1014E6006E6E6563657373617279206368616E6E93
:1014F600656C732E2E2E0D00456E61626C696E67EB
:10150600204E41562D505654206D657373616765A4
:10151600732E2E2E0A0D004175746F2D636F6E6645
:10152600696775726174696F6E20697320636F6D88
:10153600706C657465210A0D0048656C6C6F2057E8
:101546006F726C640A0D004E656F37207365747593
:0E155600702072657475726E6564640A0D0013
:00000001FF
