:1000000071C000008FC000008DC000008BC00000D8
:1000100089C0000087C0000085C0000083C00000C8
:1000200081C000007FC000007DC000007BC00000D8
:1000300079C0000077C0000075C0000073C00000E8
:1000400071C000006FC000006DC000006BC00000F8
:1000500069C0000067C0000065C0000063C0000008
:1000600074C30000ECC3000012C400005BC00000B9
:1000700059C0000057C00000FDC2000053C000007E
:1000800051C000004FC000004DC000004BC0000038
:100090004DC4000074C4000045C0000043C000000F
:1000A00041C000003FC0000066C600003BC0000029
:1000B00039C0000037C0000035C000008CC6000009
:1000C00031C000002FC000002DC00000E6C40000B9
:1000D0000DC5000027C0000077C500009EC50000C8
:1000E00021C0000011241FBECFEFD1E2DEBFCDBF83
:1000F00000E00CBF14E0A0E0B2E0E2E3F6E100E0D3
:100100000BBF02C007900D92A032B107D9F728E0CB
:10011000A0E2B4E001C01D92A537B207E1F7A9D66D
:100120000C94170B6DCF23C208958F929F92AF92BC
:10013000BF92CF92DF92EF92FF920F931F93CF93D4
:10014000DF9300D0CDB7DEB7062F662399F1E82EF6
:10015000F92E10E00F2EF7E98F2EF3E09F2EF02DF1
:100160000F2EF9EEAF2EF2E0BF2EF02DCE0101964C
:100170006C01812F8F7031F49F928F9235D70F9041
:100180000F9003C080E290E042D7F70181917F0198
:100190001F928F93BF92AF92DF92CF926DD7DF9273
:1001A000CF9222D71F5F0FB6F894DEBF0FBECDBF30
:1001B0000113DFCF87E993E09F938F9315D70F90BB
:1001C0000F900F900F900F90DF91CF911F910F9193
:1001D000FF90EF90DF90CF90BF90AF909F908F9067
:1001E0000895DF92EF92FF920F931F93CF93DF93C7
:1001F0007C01D62E662369F0EC010FEF060F10E0AC
:100200000F5F1F4F080F191F89910BD4C017D1071B
:10021000D9F76D2DC70189DFDF91CF911F910F9124
:10022000FF90EF90DF900895CF92DF92EF92FF92D0
:100230000F931F93CF93DF93CDB7DEB7E3970FB63E
:10024000F894DEBF0FBECDBF88E2EDE2F2E0DE0142
:10025000119601900D928A95E1F78BE0E5E5F2E0C9
:10026000DE01999601900D928A95E1F7CE010196F3
:100270007C016E0199E2C90ED11C8E010E5C1F4FEC
:1002800014C091918AA9890F8AAB9BA9890F8BAB66
:10029000E017F107B1F76BE0CE018996A2DFE2E04B
:1002A000EE0EF11CCE14DF0451F0F70180818FA710
:1002B000818188AB1AAA1BAAFE01BB96E2CFE39606
:1002C0000FB6F894DEBF0FBECDBFDF91CF911F9167
:1002D0000F91FF90EF90DF90CF900895CF93DF9331
:1002E000CDB7DEB72E970FB6F894DEBF0FBECDBFE9
:1002F0008EE0ECE7F2E0DE01119601900D928A9516
:10030000E1F76EE0CE0101966CDF2E960FB6F89401
:10031000DEBF0FBECDBFDF91CF910895CF93DF93A6
:10032000CDB7DEB7AC970FB6F894DEBF0FBECDBF2A
:100330008CE2EAE8F2E0DE01119601900D928A95D6
:10034000E1F76CE2CE0101964CDFAC960FB6F89463
:10035000DEBF0FBECDBFDF91CF910895CF93DF9366
:10036000CDB7DEB72B970FB6F894DEBF0FBECDBF6B
:100370008BE0E6EBF2E0DE01119601900D928A959A
:10038000E1F76BE0CE0101962CDF2B960FB6F894C7
:10039000DEBF0FBECDBFDF91CF91089580916C0875
:1003A000811108C081E090E020916D08222321F0A6
:1003B00080E0089580E090E00895E0910302E43049
:1003C00078F42E2F30E0D901A656BC4F9C918913AA
:1003D00017C091E09E0FF901ED5EF74F808311C0C9
:1003E000EA3538F491E09E0FF0E0ED5EF74F808340
:1003F00008C010920302D2DF892B41F490E001C0C3
:1004000090E09093030280E090E0089581E090E016
:100410000895CF93DF93C7E6D8E00DC0E9D2CDDFD2
:10042000892B49F0E9E1F8E0A3E6B7E081918D93EB
:10043000EC17FD07D9F7D5D28111F0CFDF91CF911D
:1004400008958EEE92E09F938F93CED5EDDE8BE0F4
:1004500093E09F938F93C8D541DF86E393E0DCD58B
:100460005DDF89E593E09F938F93BED577DF88E7C3
:1004700093E09F938F93B8D584E690E04CD48DB7EA
:100480009EB708960FB6F8949EBF0FBE8DBF089515
:100490000F931F93CF93DF93CDB7DEB760970FB65F
:1004A000F894DEBF0FBECDBF1F926F939F938F93C3
:1004B0008EE993E09F938F93CE0101969F938F9344
:1004C000DBD589810FB6F894DEBF0FBECDBF882380
:1004D00049F08E010E5F1F4F3BD3F80181918F01D0
:1004E0008111FACF60960FB6F894DEBF0FBECDBF74
:1004F000DF91CF911F910F91089523982B98229A05
:100500002A98219A2998209A289812C108956898C3
:100510007098699A7198EDC1089552985A98539AB3
:100520005B989EC20895A1E0B1E08C918E7F8C9380
:10053000E2E0F1E080818E7F80838C9182608C93F9
:1005400080818D7F808323C30895A4E0B1E08C91E6
:100550008E7F8C93E5E0F1E080818E7F80838C91AB
:1005600082608C9380818D7F8083A8C308958FE300
:10057000809365008FEE8093640081B111B882B1E1
:100580008FEF82B994B114B895B185B997B117B806
:1005900098B188B99AB11AB89BB18BB99DB11DB801
:1005A0009EB18EB990B310BA91B381BB93B3907CD6
:1005B00093BB94B39F6394BBE1E0F1E09081108220
:1005C000E2E0F1E090818083E4E0F1E0908110824C
:1005D000E5E0F1E090818083E7E0F1E09081108236
:1005E000E8E0F1E090818083AAE0B1E09C911C9268
:1005F000EBE0F1E0908180830A9A12980B9A1398AD
:100600000C9A14980D9A15980E9A16980F9A179896
:1006100038984098399841983A9842983B9843982E
:100620003C9844983D9845983E9846983F984798FE
:100630008C9181608C9380818E7F80838C9182608D
:100640008C938081826080838C9184608C93808184
:100650008460808340E060E881E690E061D013BE72
:1006600015BE58D04ADFCBD0D7D051DF56DF5BDF85
:100670006CCF08951F920F920FB60F9211240BB6F4
:100680000F922F933F934F935F936F937F938F932B
:100690009F93AF93BF93EF93FF93809125048111B4
:1006A0000EC0E0E2F4E01082FB9886819781892BEE
:1006B000F1F0E0912604F0912704199518C0E0E2CA
:1006C000F4E0818192819C012F5F3F4F328321832F
:1006D00092BD81BDA381B481CD01019694838383B2
:1006E0008C9180BD858181508583FA9AF99AFF911A
:1006F000EF91BF91AF919F918F917F916F915F919A
:100700004F913F912F910F900BBE0F900FBE0F9006
:100710001F901895109227041092260480E00895E7
:100720002FB7F8941BBEFC01608340832FBF089550
:10073000E4E6F0E080818B7F808381E58CBDE8E298
:10074000F4E010821682158208951F920F920FB660
:100750000F9211240BB60F922F933F934F935F93F9
:100760006F937F938F939F93AF93BF93CF93DF93B9
:10077000EF93FF939EB580912C04823011F1C8E273
:10078000D4E0A981BA81FD019193FA83E983813094
:1007900019F011969C9101C090E0E8E2F4E08381A9
:1007A00081508383882311F09EBD14C0E8E2F4E0F9
:1007B00083E080830580F681E02D309759F019950C
:1007C00009C0E8E2F4E0A181B281CD0101969283F3
:1007D0008183DFCFFF91EF91DF91CF91BF91AF91F7
:1007E0009F918F917F916F915F914F913F912F9149
:1007F0000F900BBE0F900FBE0F901F901895E5E65F
:10080000F0E080818F7E808381E08093A10082E090
:100810008093720080E00895E5E6F0E080818F7DAE
:10082000808381E08093210180E89EE390932901F9
:100830008093280182E08093730080E008951F92E6
:100840000F920FB60F9211240BB60F928F939F93B6
:10085000EF93FF938091C600E0915606EF5FE0931F
:10086000560690915506F0E0E95AF94F8083809141
:1008700054068F5F80935406FF91EF919F918F9163
:100880000F900BBE0F900FBE0F901F9018951F92E8
:100890000F920FB60F9211240BB60F928F93EF9316
:1008A000FF9380914106882389F0E0914206EF5F33
:1008B000EF70E0934206F0E0EC5BF94F80818093AB
:1008C000C600809141068150809341068091410687
:1008D000811105C0E1ECF0E080818F7D8083FF9184
:1008E000EF918F910F900BBE0F900FBE0F901F9046
:1008F0001895E4E6F0E080818D7F80831092C5003A
:1009000087E68093C4001092C00088E98093C100FC
:1009100010925506109256061092540610924206F6
:10092000109243061092410680E008951F920F92A4
:100930000FB60F9211240BB60F928F939F93EF93E4
:10094000FF938091CE00E091C005EF5FEF77E093D9
:10095000C0059091BF05F0E0EF53FA4F808380917E
:10096000BE058F5F8093BE05FF91EF919F918F91A0
:100970000F900BBE0F900FBE0F901F9018951F92F7
:100980000F920FB60F9211240BB60F928F93EF9325
:10099000FF938091AB05882389F0E091AC05EF5F70
:1009A000EF70E093AC05F0E0E255FA4F8081809360
:1009B000CE008091AB0581508093AB058091AB0553
:1009C000811105C0E9ECF0E080818F7D8083FF918B
:1009D000EF918F910F900BBE0F900FBE0F901F9055
:1009E00018959091BE0581E0911101C080E00895B5
:1009F0008091BE058823E1F3E091BF05EF5FEF77BB
:100A0000E093BF050FB6F8940F928091BE05815018
:100A10008093BE050F900FBEF0E0EF53FA4F808138
:100A200008952091AD052F5F2F709091AB05903107
:100A3000E1F3E22FF0E0E255FA4F80832093AD0519
:100A40000FB6F8940F928091AB058F5F8093AB0542
:100A50000F900FBEE9ECF0E0808180628083089502
:100A6000E5E6F0E080818E7F80831092CD0087E6FE
:100A70008093CC001092C80088E98093C90010923E
:100A8000BF051092C0051092BE051092AC051092E1
:100A9000AD051092AB0580E008951F920F920FB63E
:100AA0000F9211240BB60F928F939F93EF93FF93A6
:100AB0008091D600E0918A05EF5FEF71E0938A059F
:100AC00090918905F0E0E557FA4F80838091880581
:100AD0008F5F80938805FF91EF919F918F910F9089
:100AE0000BBE0F900FBE0F901F9018951F920F9284
:100AF0000FB60F9211240BB60F928F93EF93FF93C3
:100B000080917505882389F0E0917605EF5FEF709D
:100B1000E0937605F0E0E858FA4F80818093D600A4
:100B200080917505815080937505809175058111BF
:100B300005C0E1EDF0E080818F7D8083FF91EF9132
:100B40008F910F900BBE0F900FBE0F901F901895B6
:100B5000209177052F5F2F70909175059031E1F30B
:100B6000E22FF0E0E858FA4F8083209377050FB624
:100B7000F8940F92809175058F5F809375050F90A3
:100B80000FBEE1EDF0E08081806280830895E5E6AC
:100B9000F0E080818D7F80831092D50087E680937E
:100BA000D4001092D00088E98093D100109289057A
:100BB00010928A051092880510927605109277059A
:100BC0001092750580E008951F920F920FB60F9254
:100BD00011240BB60F928F939F93EF93FF93809105
:100BE0003601E0913405EF5FEF73E09334059091A7
:100BF0003305F0E0EB5CFA4F8083809132058F5F24
:100C000080933205FF91EF919F918F910F900BBED2
:100C10000F900FBE0F901F9018951F920F920FB656
:100C20000F9211240BB60F928F93EF93FF93809145
:100C30002F04882381F0E0913004EF5FE0933004CB
:100C4000F0E0EE5CFB4F80818093360180912F04B1
:100C5000815080932F0480912F04811105C0E1E31E
:100C6000F1E080818F7D8083FF91EF918F910F90D4
:100C70000BBE0F900FBE0F901F90189590913104EE
:100C80009F5F20912F04E92FF0E0EE5CFB4F808303
:100C9000909331040FB6F8940F9280912F048F5FD8
:100CA00080932F040F900FBEE1E3F1E0808180621A
:100CB00080830895E3DF80E090E00895E5E6F0E0CA
:100CC00080818B7F80831092350187E68093340189
:100CD0001092300188E9809331011092330510920F
:100CE00034051092320510923004109231041092A3
:100CF0002F048AE092E0909372088093710880E05C
:100D000008950FB6F8940F92809161079091620751
:100D10000F900FBE0895CF93DF9300D01F92CDB7F1
:100D2000DEB70FB6F8940F922091610730916207F9
:100D30000F900FBE3C832B832B813C81820F931F2E
:100D40009A8389830FB6F8940F92809161079091EE
:100D500062070F900FBE9C838B832B813C8189811E
:100D60009A812817390770F30F900F900F900F900A
:100D7000DF91CF9108951F920F920FB60F92112419
:100D80000BB60F922F933F934F935F936F937F9385
:100D90008F939F93AF93BF93EF93FF9380916107DE
:100DA000909162070196909362078093610731DB0F
:100DB000FF91EF91BF91AF919F918F917F916F9133
:100DC0005F914F913F912F910F900BBE0F900FBEEF
:100DD0000F901F9018951F920F920FB60F9211242B
:100DE0002F933F934F935F936F937F938F939F9333
:100DF000AF9380915707909158078058914C9093EA
:100E00005807809357079093290180915707809343
:100E100028012091590730915A0740915B07509162
:100E20005C0760915D0770915E0780915F0790910C
:100E30006007A1E0CDD02093590730935A07409323
:100E40005B0750935C0760935D0770935E07809328
:100E50005F0790936007AF919F918F917F916F9102
:100E60005F914F913F912F910F900FBE0F901F9068
:100E7000189547DF58D9789484EB93E09F938F932C
:100E8000B3D082EE94E047DFDCDA82EC93E09F930C
:100E90008F93AAD036DF8C010F900F900F900F9098
:100EA000C3E6D7E00F2EFDECBF2EF02D0F2EFAEE8D
:100EB000CF2EF3E0DF2EF02D0F2EFBEFEF2EF3E021
:100EC000FF2EF02D0E5C1F4F1CDF08171907E0F7EF
:100ED00018DF8C0168856B9D612D112466956695E0
:100EE000669570E088ED93E0D3DA68856B9D812D7F
:100EF0001124869586958695880F982F990F990FBE
:100F0000890F681B70E08BED93E0C2DA69856B9DF9
:100F1000612D112466956695669570E08EED93E0DF
:100F2000B7DA69856B9D812D112486958695869506
:100F3000880F982F990F990F890F681B70E081EE29
:100F400093E0A6DA6A856B9D612D112466956695FE
:100F5000669570E084EE93E09BDA6A856B9D812D47
:100F60001124869586958695880F982F990F990F4D
:100F7000890F681B70E087EE93E08ADA8D818F938A
:100F80008C818F938E811F928F938F811F928F936D
:100F9000DF92CF9229D08B818F938A818F93898121
:100FA0008F9388818F938A851F928F9389851F9253
:100FB0008F9388851F928F93FF92EF9215D08DB7F4
:100FC0009EB744960FB6F8949EBF0FBE8DBF7ACFE2
:100FD0000024A7FD00942A0F301D401D501D601DE8
:100FE000701D801D901D0895CF93DF93CDB7DEB7A0
:100FF000AE014A5F5F4FFA0161917191AF0180913B
:1010000071089091720866D0DF91CF910895609138
:1010100071087091720871C20F931F93CF93DF9381
:10102000E0917108F0917208238121FF1BC08C01AF
:10103000D0E0C0E0F80181918F016091710870915A
:101040007208DB011896ED91FC911997882331F015
:101050001995892B79F3DFEFCFEFECCF8AE0199563
:10106000892B19F08FEF9FEF02C08D2F9C2FDF91FE
:10107000CF911F910F9108950F931F93CF93DF93FB
:10108000CDB7DEB72E970FB6F894DEBF0FBECDBF3B
:101090000E891F8986E08C831A8309838FEF9FE76F
:1010A0009E838D83AE01465E5F4F688D798DCE0144
:1010B000019610D0EF81F885E00FF11F10822E9677
:1010C0000FB6F894DEBF0FBECDBFDF91CF911F9159
:1010D0000F9108952F923F924F925F926F927F925D
:1010E0008F929F92AF92BF92CF92DF92EF92FF9238
:1010F0000F931F93CF93DF93CDB7DEB72B970FB628
:10110000F894DEBF0FBECDBF6C017B018A01FC01EC
:1011100017821682838181FFBFC1CE0101963C01F7
:10112000F6019381F70193FD859193FF81917F01F2
:10113000882309F4ADC1853239F493FD859193FF7D
:1011400081917F01853221F4B60190E0D6D1E8CFBC
:10115000912C212C312CFFE1F315D8F08B3279F052
:1011600038F4803279F08332A1F4232D20611DC040
:101170008D3261F0803369F4232D216016C0832DF8
:101180008260382EE32DE4603E2E2AC0F32DF860F5
:101190001DC037FC2DC020ED280F2A3040F08E32C4
:1011A000B9F436FC75C1232D2064322E19C036FEE9
:1011B00006C08AE0989E200D1124922E11C0EAE00C
:1011C0002E9E200D1124222EF32DF0623F2E08C0FA
:1011D0008C3621F4832D8068382E02C0883641F485
:1011E000F70193FD859193FF81917F018111B3CF29
:1011F000982F9F7D9554933028F40C5F1F4F9FE3E9
:1012000099830DC0833631F0833771F0833509F04F
:1012100055C020C0F801808189830E5F1F4F88244C
:101220008394912C530112C02801F2E04F0E511CFF
:10123000F801A080B18036FE03C0692D70E002C0C5
:101240006FEF7FEFC5014ED14C018201F32DFF7787
:101250003F2E15C0280122E0420E511CF801A0804B
:10126000B18036FE03C0692D70E002C06FEF7FEFE2
:10127000C5012DD14C01F32DF0683F2E820133FCC6
:1012800019C0822D90E088169906A0F4B60180E27C
:1012900090E033D12A94F5CFF50137FC859137FEE4
:1012A00081915F01B60190E028D121102A9421E0BC
:1012B000821A91088114910479F7E1C0843611F003
:1012C000893639F5F80137FE07C060817181828166
:1012D00093810C5F1F4F08C060817181072E000C45
:1012E000880B990B0E5F1F4FF32DFF763F2E97FF54
:1012F00009C090958095709561957F4F8F4F9F4F56
:10130000F0683F2E2AE030E0A30133D1882E861802
:1013100044C0853731F4232D2F7EB22E2AE030E0F1
:1013200025C0932D997FB92E8F36C1F018F48835DA
:1013300079F0AEC0803719F0883721F0A9C0E92FC5
:10134000E061BE2EB4FE0DC0FB2DF460BF2E09C0BF
:1013500034FE0AC0292F2660B22E06C028E030E0F5
:1013600005C020E130E002C020E132E0F801B7FE24
:1013700007C060817181828193810C5F1F4F06C01D
:101380006081718180E090E00E5F1F4FA301F1D07A
:10139000882E8618FB2DFF773F2E36FE0DC0232D9D
:1013A0002E7FA22E891458F434FE0BC032FC09C0E3
:1013B000832D8E7EA82E05C0B82CA32C03C0B82C7C
:1013C00001C0B92CA4FE0FC0FE01E80DF11D808103
:1013D000803321F49A2D997EA92E09C0A2FE06C061
:1013E000B394B39404C08A2D867809F0B394A3FC17
:1013F00010C0A0FE06C0B21480F4280C922C9B18DA
:101400000DC0B21458F4B60180E290E076D0B394E7
:10141000F8CFB21418F42B1802C0982C212CA4FE7B
:101420000FC0B60180E390E068D0A2FE16C0A1FC18
:1014300003C088E790E002C088E590E0B6010CC0E8
:101440008A2D867851F0A1FE02C08BE201C080E2B5
:10145000A7FC8DE2B60190E050D0891430F4B601BB
:1014600080E390E04AD09A94F8CF8A94F301E80D93
:10147000F11D8081B60190E040D08110F6CF22208E
:1014800009F44ECEB60180E290E037D02A94F7CF2F
:10149000F6018681978102C08FEF9FEF2B960FB6E2
:1014A000F894DEBF0FBECDBFDF91CF911F910F919A
:1014B000FF90EF90DF90CF90BF90AF909F908F9074
:1014C0007F906F905F904F903F902F900895FC0118
:1014D0000590615070400110D8F7809590958E0F5F
:1014E0009F1F0895FC016150704001900110D8F7D2
:1014F000809590958E0F9F1F08950F931F93CF9304
:10150000DF93FB01238121FD03C08FEF9FEF2CC0F0
:1015100022FF16C046815781248135814217530727
:1015200044F4A081B1819D012F5F3F4F318320831F
:101530008C93268137812F5F3F4F3783268314C0DA
:101540008B01EC01FB010084F185E02D1995892BBD
:10155000E1F6D80116968D919C91179701961796F2
:101560009C938E931697CE01DF91CF911F910F918F
:101570000895FA01AA27283051F1203181F1E89429
:101580006F936E7F6E5F7F4F8F4F9F4FAF4FB1E076
:101590003ED0B4E03CD0670F781F891F9A1FA11D71
:1015A000680F791F8A1F911DA11D6A0F711D811D72
:1015B000911DA11D20D009F468943F912AE0269F37
:1015C00011243019305D3193DEF6CF010895462F96
:1015D0004770405D4193B3E00FD0C9F7F6CF462F77
:1015E0004F70405D4A3318F0495D31FD40524193E0
:1015F00002D0A9F7EACFB4E0A6959795879577959D
:101600006795BA95C9F700976105710508959B0123
:10161000AC010A2E06945795479537952795BA95AC
:10162000C9F7620F731F841F951FA01D0895F894BA
:02163000FFCFEA
:10163200080400000000000000000000000200009A
:1016420000005A0600000000B56206090D00FFFF07
:10165200000000000000FFFF0000172FAEF00AF0AC
:1016620009F000F001F00DF006F002F007F003F0CF
:1016720004F00EF00FF005F008F100F101F103F1B2
:1016820004F105F106B56206010300000000000046
:10169200B5620600140001000000D008000000C27C
:1016A20001000700030000000000C07EB5620608CA
:1016B2000600E803010001000139B562063E24007C
:1016C200000016040004FF000100000101010300F4
:1016D2000000000105000300000000010608FF00F1
:1016E20000000001A425B5620601030001070113F1
:1016F20051B56206312000010100003200000001F4
:1017020000000080969800000000000000008000A9
:101712000000006F00000029A8252E3258004469FD
:101722007361626C696E67204E4D4541206D657331
:1017320073616765732E2E2E0A0D004368616E6712
:10174200696E6720726563656976696E6720667285
:10175200657175656E637920746F203120536563FE
:101762002E2E2E0A0D0044697361626C696E672029
:10177200756E6E6563657373617279206368616EFD
:101782006E656C732E2E2E0D00456E61626C696E55
:1017920067204E41562D505654206D657373616714
:1017A20065732E2E2E0A0D004175746F2D636F6EB8
:1017B20066696775726174696F6E20697320636F01
:1017C2006D706C657465210A0D00B56201072573A1
:1017D2002E76616C3D253164FFFFFF0030782530A5
:1017E2003278200048656C6C6F20576F726C640A07
:1017F2000D004E656F3720736574757020726574C5
:1018020075726E65640A0D006E31006E32006E33C1
:10181200006E34006E35006E36004461746520201F
:10182200256420256420256420200054696D6520EC
:1018320025643A25643A256420205554432020200B
:10184200202045706F63682020256C750D0A00000A
:00000001FF
